:100000000C942A000C9447000C9447000C94470071
:100010000C9447000C9447000C9447000C94470044
:100020000C9447000C9447000C9447000C94470034
:100030000C9447000C9447000C9447000C94470024
:100040000C9447000C9447000C9447000C94470014
:100050000C94470011241FBECFE5D4E0DEBFCDBF16
:1000600010E0A0E6B0E0E8E1FAE002C005900D92F1
:10007000AC38B107D9F720E0ACE8B0E001C01D9280
:10008000AB3BB207E1F70E9449000C940A050C94BF
:10009000000021E041E066E670E08EE890E00E941A
:1000A000EF00892B09F0FFCF8EE890E00E94DF007F
:1000B00021E04FE050E06FE170E08EE890E00E94B8
:1000C000A0010EE810E0C0E0F801C0A7C8010E943E
:1000D0002D0289EF90E00197F1F700C00000CF5F9B
:1000E000C43091F7F0CF9C012370332721303105C4
:1000F00081F0C0F02230310579F02330310579F0FC
:10010000AC014C7F240F351F2031310570F4C9013B
:10011000089530E020E0F4CF21E030E0F1CF22E09C
:1001200030E0EECF23E030E0EBCF9C01F0CF209128
:100130008C0030918D00232B09F440C028E02DC0A5
:10014000A0918C00B0918D005696ED91FC9157973F
:10015000908158963C91932B9083A0918C00B09104
:100160008D005196ED91FC915297908153963C9160
:10017000932B908300C0A0918C00B0918D0051967C
:10018000ED91FC915297308153969C9190959323D9
:10019000908300C0880F215089F088238CF2A091B1
:1001A0008C00B0918D005696ED91FC91579730815F
:1001B00058969C91909593239083CFCF0895009764
:1001C00069F0FC0124A135A12115310539F046A1C2
:1001D00057A170E060E0C9010E9403050895CF9324
:1001E000DF93009709F49DC06115710509F49CC067
:1001F000442309F49CC0222309F49CC0FB01EC01B8
:100200008EE1DE0101900D928A95E1F74E8F2F8FDE
:1002100050E0CA01880F991F82959295907F982788
:10022000807F982799A388A330E0C9018295929591
:10023000907F9827807F98279BA38AA3429FC00125
:10024000439F900D529F900D112400249695879501
:100250000794969587950794982F802D9FA38EA33A
:100260000E94DE039DA38CA3892B09F466C0E8815C
:10027000F98180819C81892B8083ED81FE81808141
:100280009985892B8083EA85FB8580819E85892BD2
:100290008083E98DFA8D80819D8D892B8083EF8508
:1002A000F88980819B89892B8083EC89FD898081F5
:1002B000988D892B8083EA81FB8180819C81892BA9
:1002C0008083EF81F885908189858095892380835B
:1002D000EC85FD8590818E85809589238083EB8DCB
:1002E000FC8D90818D8D809589238083E989FA89A1
:1002F00090818B89809589238083EE89FF89908105
:10030000888D809589238083D0938D00C0938C0045
:10031000CE010E94DF0018A690E080E0DF91CF912F
:1003200008958FEF9FEFFACF8FEF9FEFF7CF8FEF0B
:100330009FEFF4CF8FEF9FEFF1CF8FEF9FEFEECFD7
:10034000DF92EF92FF920F931F93CF93DF9300976B
:1003500009F475C0DC0194960D911C9195970115D7
:10036000110509F46CC09096ED91FC9191976E1770
:100370007F0708F064C09296ED91FC914E175F07DD
:1003800008F05DC0D22E7B01EC01CA010E9473000F
:100390004E8D9C01329522952F7023273F70232785
:1003A00050E0249FB001259F700D349F700D1124E3
:1003B000970136952795329522952F7023273F7008
:1003C0002327260F371F220F331F22953295307FA8
:1003D0003227207F3227B7016F717727620F731F93
:1003E000EF8DE49F9001E59F300D1124220F331F04
:1003F000220F331F8F709927289FF001299FF00D3E
:10040000389FF00D1124CB01969587959695879589
:1004100096958795E80FF91F8EA19FA1E817F90718
:1004200070F467707727DB01AC57BF4F8C91D11008
:100430000EC0E00FF11F8095908189238083DF91AA
:10044000CF911F910F91FF90EF90DF900895E00FF3
:10045000F11F9081892B8083F2CF2F923F924F9290
:100460005F926F927F928F929F92AF92BF92CF9244
:10047000DF92EF92FF920F931F93CF93DF9300D001
:1004800000D0CDB7DEB79A838983009709F466C19F
:10049000DC0194968D919C919597892B09F45EC10E
:1004A0001296ED91FC911397808114969C9114976C
:1004B000892B808398968C91989780FF66C11796B8
:1004C000ED91FC911897908119962C91922B908325
:1004D00081FD68C1A981BA811C96ED91FC911D979F
:1004E00090811E968C91809589238083E981FA8181
:1004F000FC83EB83868D278C829D900111243A83A7
:10050000298320A589819A81880F991F880F991FB7
:10051000289F8001299F100D112449805A80440C86
:10052000551C440C551C440C551C440C551C69802E
:100530007A80660C771C660C771C660C771C660C40
:10054000771C660C771C80E3A981BA818A9F4001E1
:100550008B9F900C1124AB2B09F4DAC05801BFEF2C
:10056000AB1ABB0A6801E2E0CE0ED11C7801F3E0C1
:10057000EF0EF11C312C212CAB81BC819496ED91B6
:10058000FC91E80DF91DE00FF11F80810E9497009A
:10059000AB81BC819496ED91FC91E60DF71DE00FC7
:1005A000F11F80810E949700AB81BC819496ED91F0
:1005B000FC91EA0DFB1DE80DF91D80810E9497005A
:1005C000AB81BC819496ED91FC91EA0DFB1DE60D8B
:1005D000F71D80810E949700AB81BC819496ED91BC
:1005E000FC91E40DF51DE00FF11F80810E94970042
:1005F000AB81BC819496ED91FC91E00FF11F80815D
:100600000E949700AB81BC819496ED91FC91EA0D1C
:10061000FB1DE40DF51D80810E949700AB81BC811C
:100620009496ED91FC91EA0DFB1D80810E9497004C
:10063000AB81BC819496ED91FC91E80DF91DEC0D18
:10064000FD1D80810E949700AB81BC819496ED9145
:10065000FC91E60DF71DEC0DFD1D80810E949700B9
:10066000AB81BC819496ED91FC91E80DF91DEE0DE6
:10067000FF1D80810E949700AB81BC819496ED9113
:10068000FC91E60DF71DEE0DFF1D80810E94970085
:10069000AB81BC819496ED91FC91E40DF51DEC0DC0
:1006A000FD1D80810E949700AB81BC819496ED91E5
:1006B000FC91EC0DFD1D80810E949700AB81BC81F7
:1006C0009496ED91FC91E40DF51DEE0DFF1D8081DA
:1006D0000E949700AB81BC819496ED91FC91EE0D48
:1006E000FF1D80810E9497000C5F1F4FBFEF2B1AE8
:1006F0003B0AE4E0AE0EB11CF4E0CF0ED11C24E0C6
:10070000E20EF11C89819A818215930509F034CF9C
:10071000AB81BC815B96ED91FC915C9780815D968D
:100720009C91892B8083B3E0BA95F1F70000AB81EF
:10073000BC815B96ED91FC915C9790815D968C916C
:100740005D978095892380831296ED91FC91139794
:10075000908114968C918095892380830F900F90BF
:100760000F900F90DF91CF911F910F91FF90EF901D
:10077000DF90CF90BF90AF909F908F907F906F90C1
:100780005F904F903F902F900895A981BA8117965E
:10079000ED91FC911897208119969C919095922348
:1007A000908396CEA981BA811C96ED91FC911D97FC
:1007B00080811E969C91892B808398CE0F931F93E6
:1007C000CF93DF938230910510F482E090E0E091C6
:1007D000B900F091BA0030E020E0B0E0A0E030973E
:1007E00099F42115310509F44AC0281B390B24302E
:1007F0003105D8F58A819B816115710589F1FB016D
:1008000093838283FE0111C0408151810281138153
:1008100048175907E0F04817590799F4109761F005
:1008200012960C93129713961C933296CF01DF9178
:10083000CF911F910F9108950093B9001093BA00C2
:10084000F4CF2115310551F04217530738F0A901B3
:10085000DB019A01BD01DF01F801C1CFEF01F9CF42
:100860009093BA008093B900CDCFFE01E20FF31F41
:10087000819391932250310939832883D7CF2091D6
:10088000B7003091B800232B41F4209162003091E1
:1008900063003093B8002093B7002091600030913E
:1008A00061002115310541F42DB73EB74091640038
:1008B00050916500241B350BE091B700F091B80012
:1008C000E217F307A0F42E1B3F0B2817390778F027
:1008D000AC014E5F5F4F2417350748F04E0F5F1F86
:1008E0005093B8004093B700819391939FCFF0E06D
:1008F000E0E09CCFCF93DF930097E9F0FC013297C3
:1009000013821282A091B900B091BA00ED0130E0DB
:1009100020E01097A1F420813181820F931F209154
:10092000B7003091B8002817390709F061C0F0937B
:10093000B800E093B700DF91CF910895EA01CE1798
:10094000DF07E8F54A815B819E0141155105B1F74A
:10095000E901FB83EA8349915991C40FD51FEC1734
:10096000FD0761F4808191810296840F951FE90152
:1009700099838883828193819B838A83F0E0E0E07E
:1009800012968D919C9113970097B9F52D913C91FA
:100990001197CD010296820F931F2091B7003091DD
:1009A000B8002817390739F6309751F51092BA0078
:1009B0001092B900B093B800A093B700BCCFD38316
:1009C000C28340815181840F951FC817D90761F4F4
:1009D0004E5F5F4F88819981480F591F5183408333
:1009E0008A819B81938382832115310509F0B0CFE1
:1009F000F093BA00E093B9009ECFFD01DC01C0CFB7
:100A000013821282D7CFDC0101C06D934150504058
:080A1000E0F70895F894FFCF10
:100A18000000BB00200031003200803A003B000299
:100A28003A003B0004370038008037003800203A8D
:0C0A3800003B0010804020100804020168
:00000001FF
