:100000000C942A000C9447000C9447000C94470071
:100010000C9447000C9447000C9447000C94470044
:100020000C9447000C9447000C9447000C94470034
:100030000C9447000C9447000C9447000C94470024
:100040000C9447000C9447000C9447000C94470014
:100050000C94470011241FBECFE5D4E0DEBFCDBF16
:1000600010E0A0E6B0E0ECEAF7E002C005900D92E7
:10007000A438B107D9F720E0A4E8B0E001C01D9290
:10008000A33BB207E1F70E9449000C94D4030C94FF
:10009000000021E041E066E670E086E890E00E9422
:1000A0009100892B09F0FFCF86E890E00E94810043
:1000B00086E890E00E94810086E890E00E9481003E
:1000C00010E000E021E050E040E0B80186E890E078
:1000D0000E9439010F5F1F4F0830110599F706E89C
:1000E00010E0C0E0F801C0A7C8010E94A10189EF9B
:1000F00090E00197F1F700C00000CF5FC43091F7A6
:10010000F0CF009769F0FC0124A135A1211531053C
:1001100039F046A157A170E060E0C9010E94CD030B
:100120000895CF93DF93009709F494C0611571058A
:1001300009F493C0442309F493C0222309F493C023
:10014000FB01EC018EE1DE0101900D928A95E1F751
:100150004E8F2F8F50E0CA01880F991F829592957C
:10016000907F9827807F982799A388A380E1289F74
:10017000900111243BA32AA3429FC001439F900DED
:10018000529F900D1124880F991F880F991F9FA3CC
:100190008EA30E94A8029DA38CA3892B09F466C09C
:1001A000E881F98180819C81892B8083ED81FE81AA
:1001B00080819985892B8083EA85FB8580819E8556
:1001C000892B8083EF85F88980819B89892B8083A7
:1001D000EC89FD898081988D892B8083E98DFA8D4A
:1001E00080819D8D892B8083EA81FB8180819C8128
:1001F000892B8083EF81F88590818985809589237B
:100200008083EC85FD8590818E8580958923808310
:10021000E989FA8990818B89809589238083EE8989
:10022000FF899081888D809589238083EB8DFC8D5B
:1002300090818D8D809589238083D0938500C09394
:100240008400CE010E94810018A690E080E0DF913A
:10025000CF9108958FEF9FEFFACF8FEF9FEFF7CFFA
:100260008FEF9FEFF4CF8FEF9FEFF1CF8FEF9FEFE7
:10027000EECF0F931F93CF93DF93009709F456C0EF
:10028000DC019496ED91FC919597309709F44EC05E
:1002900090960D90BC91A02D6A177B0708F046C080
:1002A000EC010AA11BA14017510708F03FC0EB0168
:1002B000CF71DD27D695C795D695C795D695C795A5
:1002C0008B0116950795129502950F7001271F70E7
:1002D0000127000F111F000F111FC00FD11FB6956E
:1002E000A795B695A795B695A795A49F8001A59FBC
:1002F000100DB49F100D1124C00FD11FDC01969674
:100300008D919C91C817D90788F46770772780E88A
:1003100090E002C0959587956A95E2F721110BC090
:10032000EC0FFD1F8095908189238083DF91CF9111
:100330001F910F910895EC0FFD1F9081892B8083F1
:10034000F5CFFF920F931F93CF93DF938C0100970C
:1003500009F4F8C0DC0194968D919C919597892BB6
:1003600009F4F0C01296ED91FC91139780811496D8
:100370009C911497892B808398969C91989784E000
:10038000891B80FF27C01796ED91FC9118979081EB
:1003900019962C91922B908381FD27C0D8011C9631
:1003A000ED91FC911D9790811E968C9180958923EB
:1003B0008083F80160A171A1769567957695679520
:1003C00076956795878D882309F498C0F12C30E0E5
:1003D00020E06EC01796ED91FC9118972081199638
:1003E0009C91909592239083D7CFD8011C96ED9144
:1003F000FC911D9780811E969C91892B8083D9CF7B
:10040000A0918400B09185005696CD91DC915797CC
:10041000988158963C91932B9883A0918400B09139
:1004200085005196CD91DC915297988153963C91DD
:10043000932B988300C0A0918400B09185005196C1
:10044000CD91DC915297388153969C91909593234E
:10045000988300C0880F215089F088238CF2A091E6
:100460008400B09185005696CD91DC9157973881E4
:1004700058969C91909593239883CFCF31964E17A1
:100480005F0749F08091840090918500892BB1F33A
:10049000808128E0E2CFF3942F2D30E0F801878DA2
:1004A00090E0880F991F880F991F2817390734F596
:1004B000220F331F220F331FD80198968C919897E3
:1004C000280F311D92968D919C919397281739078B
:1004D00010F794964D915C91629FC001639F900DBF
:1004E000729F900D112461157105A9F2FA01E80FB0
:1004F000F91F460F571F480F591FC4CFD8015B96ED
:10050000ED91FC915C9780815D969C91892B808315
:10051000B3E0BA95F1F70000D8015B96ED91FC913C
:100520005C9790815D968C915D97809589238083FF
:100530001296ED91FC911397908114968C91809571
:1005400089238083DF91CF911F910F91FF900895B0
:100550000F931F93CF93DF938230910510F482E0C5
:1005600090E0E091B100F091B20030E020E0B0E026
:10057000A0E0309799F42115310509F44AC0281BF1
:10058000390B24303105D8F58A819B8161157105BD
:1005900089F1FB0193838283FE0111C04081518167
:1005A0000281138148175907E0F04817590799F459
:1005B000109761F012960C93129713961C93329633
:1005C000CF01DF91CF911F910F9108950093B1005A
:1005D0001093B200F4CF2115310551F042175307A3
:1005E00038F0A901DB019A01BD01DF01F801C1CF9B
:1005F000EF01F9CF9093B2008093B100CDCFFE010F
:10060000E20FF31F8193919322503109398328839C
:10061000D7CF2091AF003091B000232B41F420912F
:100620006200309163003093B0002093AF002091BE
:100630006000309161002115310541F42DB73EB7BE
:100640004091640050916500241B350BE091AF0090
:10065000F091B000E217F307A0F42E1B3F0B281710
:10066000390778F0AC014E5F5F4F2417350748F02B
:100670004E0F5F1F5093B0004093AF008193919352
:100680009FCFF0E0E0E09CCFCF93DF930097E9F0BD
:10069000FC01329713821282A091B100B091B20096
:1006A000ED0130E020E01097A1F420813181820F2C
:1006B000931F2091AF003091B0002817390709F03F
:1006C00061C0F093B000E093AF00DF91CF91089547
:1006D000EA01CE17DF07E8F54A815B819E014115EB
:1006E0005105B1F7E901FB83EA8349915991C40FA0
:1006F000D51FEC17FD0761F4808191810296840F6C
:10070000951FE90199838883828193819B838A83E2
:10071000F0E0E0E012968D919C9113970097B9F567
:100720002D913C911197CD010296820F931F20913C
:10073000AF003091B0002817390739F6309751F5DE
:100740001092B2001092B100B093B000A093AF002D
:10075000BCCFD383C28340815181840F951FC817BA
:10076000D90761F44E5F5F4F88819981480F591F07
:10077000518340838A819B81938382832115310534
:1007800009F0B0CFF093B200E093B1009ECFFD012D
:10079000DC01C0CF13821282D7CFDC0101C06D9380
:0C07A00041505040E0F70895F894FFCF5E
:1007AC000000B300200031003200803A003B000210
:1007BC003A003B0004370038008037003800203AFC
:0407CC00003B0010DE
:00000001FF
