:100000000C9418010C9435010C9435010C943501B5
:100010000C9435010C9435010C9435010C94350188
:100020000C9435010C9435010C9435010C9452015B
:100030000C9435010C9435010C9435010C94350168
:100040000C9435010C9435010C9435010C94350158
:100050000C943501000000000000005F0000000764
:10006000000700147F147F14242A7F2A1223130808
:10007000646236495522500005030000001C2241ED
:10008000000041221C00082A1C2A0808083E080813
:1000900000503000000808080808006060000020D8
:1000A000100804023E5149453E00427F4000426133
:1000B0005149462141454B311814127F10274545BF
:1000C00045393C4A494930017109050336494949D6
:1000D00036064949291E0036360000005636000013
:1000E00000081422411414141414412214080002AC
:1000F00001510906324979413E7E1111117E7F4935
:100100004949363E414141227F4141221C7F4949B4
:1001100049417F090901013E414151327F080808E8
:100120007F00417F41002040413F017F0814224170
:100130007F404040407F0204027F7F0408107F3EE2
:100140004141413E7F090909063E4151215E7F0937
:10015000192946464949493101017F01013F404083
:10016000403F1F2040201F7F2018207F6314081469
:10017000630304780403615149454300007F414112
:10018000020408102041417F0000040201020440E3
:1001900040404040000102040020545454787F48FD
:1001A0004444383844444420384444487F38545404
:1001B0005418087E090102081454543C7F080404B2
:1001C0007800447D40002040443D00007F102844DA
:1001D00000417F40007C041804787C0804047838CF
:1001E000444444387C14141408081414187C7C0803
:1001F0000404084854545420043F4440203C4040E8
:10020000207C1C2040201C3C4030403C44281028CE
:10021000440C5050503C4464544C44000836410057
:1002200000007F0000004136080008082A1C080072
:1002300011241FBECFE5D4E0DEBFCDBF12E0A0E6A3
:10024000B0E0E2ECF1E102C005900D92A03EB107F2
:10025000D9F723E0A0EEB2E001C01D92A43DB207A1
:10026000E1F70E94FC020C94DF080C94000090BDA2
:1002700089B988E98AB986E880BD789408955D9B3C
:10028000FECF8CB90895CF93DF93EC01888188234A
:1002900031F021960E943F0189918111FBCFDF91BE
:1002A000CF9108951F920F920FB60F9211242F93A2
:1002B0003F934F935F936F937F938F939F93AF93EE
:1002C000BF93CF93DF93EF93FF93CCB18C2F0E941A
:1002D0003F01CD3001F1CA30F1F0C83009F460C0FF
:1002E000CF3709F45DC080EE8C0F8F3508F043C026
:1002F0008091E20290E001968F7790782091E10260
:100300002817C9F1E091E202F0E0E05BFC4FC08306
:100310008093E20230C09091E2028091E10298174E
:1003200051F18091E1029091E2028917B9F1A0E1C7
:10033000B3E0E0E090E0EC01C05BDC4F28812D935E
:1003400001968F779078EF5F9091E202981711F005
:10035000EF3381F7F0E0E05FFC4F108281E08093A3
:10036000E0021092E2021092E1028DE00E943F0151
:100370008AE00E943F01FF91EF91DF91CF91BF9101
:10038000AF919F918F917F916F915F914F913F912D
:100390002F910F900FBE0F901F901895E0E0DACFCD
:1003A0009091E2028091E102981729F38091E20294
:1003B00090E081589F4F8F7790788093E20288E099
:1003C0000E943F0180E20E943F0188E00E943F01BD
:1003D000D2CF0F931F93CF93DF932091E00221118F
:1003E00005C0DF91CF911F910F910895EC01062F69
:1003F00010E0A8014150510960E173E00E94D0086B
:10040000C00FD11F219718821092E002EACF14BAD0
:100410008FEF85BB0895CF938091E3028F5F8A3081
:10042000C0F11092E302C3B3C095C0FF04C0809135
:1004300087008B3090F5C1FF04C08091870084361F
:10044000A0F1C2FD3AC0C3FD56C0C4FF08C08091F0
:10045000850090918600181619060CF459C0C5FF46
:1004600008C08091850090918600893091050CF438
:1004700059C0C6FF68C08091840081115DC0CC2343
:1004800054F48F5F809384008BE691E00E944301D7
:1004900002C08093E302CF91089585508093870036
:1004A0008AEC90E00E944301C6CF8B5F8093870067
:1004B0008EED90E00E944301C4CF81E08093E4027E
:1004C0008AE890E0FC0101900020E9F7CF018B5809
:1004D00090409C01220F331F220F331F821B930B6E
:1004E000880F991F909389008093880082EF90E095
:1004F0000E944301A8CF1092E40280E290E0909322
:100500008900809388008FE091E00E9443019DCF95
:10051000019790938600809385008CE291E00E9481
:1005200043019DCF019690938600809385008EE3D2
:1005300091E00E9443019DCF81508093840082E529
:1005400091E00E944301CC230CF0A5CF8091840060
:10055000873008F0A0CF95CFCF93DF93EAE8F0E0A3
:1005600020E4DF011D922A95E9F7FC0101900020AB
:10057000E9F73197E81BEF3308F0EEE3CE2FD0E038
:10058000AE01BC018AE890E00E94C008C657DF4F68
:1005900080E2888319828091E402882331F18AE81D
:1005A00090E0FC0101900020E9F79F012B583040BA
:1005B000C901880F991F820F931F880F991F91956A
:1005C00081959109909389008093880084E891E057
:1005D0000E9443018AE890E00E9443018DEE90E082
:1005E0000E944301DF91CF91089580E290E09093C3
:1005F000890080938800EACFCF93DF93CDB7DEB731
:10060000C654D1090FB6F894DEBF0FBECDBF87EA3E
:1006100091E60197F1F700C0000083E390E00E94AB
:100620003701E7EAF1E63197F1F700C0000081E415
:100630000E943F0183EC99E00197F1F700C00000B0
:100640008DE00E943F018AE00E943F0186E991E02F
:100650000E94430181EC91E00E9443018EEF91E002
:100660000E9443018DE192E00E94430182E492E006
:100670000E94430188E692E00E9443018CE892E0E8
:100680000E9443018FEE90E00E94430121E041E08F
:1006900066E670E087EE92E00E94BF04892B29F0A5
:1006A0008FEA92E00E944301FFCF87EE92E00E9422
:1006B000AF040E94070204C0309389002093880091
:1006C00023961FAE1EAE2397A9C060E4CE0101960B
:1006D0000E94E901CE0101960E94AC02A3C00F5F07
:1006E0001F4F3FEFE31AF30A07301105A9F020E18D
:1006F000E216F104A0F7C601002E02C09595879579
:100700000A94E2F780FFEBCF21E0A701B50187EE65
:1007100092E00E945D05E3CF4FEFA41AB40A6A1479
:100720007B0489F0F0E2AF16B104B0F72596EEAD88
:10073000FFAD2597EA0DFB1DE491740110E000E088
:10074000CE2ED12CD4CF85E001C080E090E0019680
:10075000480E591EF10181911F018823A1F1F0E299
:100760004F16510484F580528F3578F730E18316A7
:1007700091041CF592012B5F3F4F0AF127964EAD75
:100780005FAD27975523ECF090E09C01220F331FBB
:10079000220F331F820F931F320155E0650E711C2B
:1007A000520124E530E024193509F901E80FF91F59
:1007B0002596FFAFEEAF2597B5CF80E0C7CF85E098
:1007C000C5CF85E0C3CF10E00F2EF7EEEF2EF2E09D
:1007D000FF2EF02DF70110A7C7010E94EA059091A6
:1007E00084009F5F41F080E0F9E2FA95F1F700C0E4
:1007F0008F5F9813F9CF1F5F143061F723962EADEA
:100800003FAD23972F5F3F4F23963FAF2EAF2397E8
:10081000809187008217130661F158F18091E00200
:10082000811153CF0E940B0287EE92E00E94AF0429
:1008300080908500909086004090880050908900BC
:10084000EAE8F0E08081882309F4BDCFF0E24F169A
:1008500051040CF0B8CF0F2EFBE82F2EF0E03F2E06
:10086000F02D9401295F3F4F27963FAF2EAF27977A
:100870007ACFEAE8F0E001900020E9F79F012B58D9
:100880003040C901880F991F820F931F880F991F4D
:100890002091E402211114C0209188003091890038
:1008A00021503109919581959109281739070CF04C
:1008B00003CF20E230E0309389002093880000CFFE
:1008C00020918800309189002F5F3F4F2132310500
:1008D0002CF43093890020938800F2CE9195819575
:1008E00091099093890080938800EACECF93DF939B
:1008F0001F92CDB7DEB72091E5023091E602232B9F
:1009000031F08FB9779BFECF8FB1898389810F90AA
:10091000DF91CF9108959C01237033272130310559
:1009200081F0C0F02230310579F02330310579F0C3
:10093000AC014C7F240F351F2031310570F4C90103
:10094000089530E020E0F4CF21E030E0F1CF22E064
:1009500030E0EECF23E030E0EBCF9C01F0CF00970A
:1009600069F0FC0124A135A12115310539F046A11A
:1009700057A170E060E0C9010E94C9080895CF93B3
:10098000DF93009709F48AC06115710509F489C0E5
:10099000442309F489C0222309F489C0FB01EC0136
:1009A0008EE1DE0101900D928A95E1F74E8F2F8F37
:1009B00050E0CA01880F991F82959295907F9827E1
:1009C000807F982799A388A330E0C90182959295EA
:1009D000907F9827807F98279BA38AA3429FC0017E
:1009E000439F900D529F900D11240024969587955A
:1009F0000794969587950794982F802D9FA38EA393
:100A00000E949B079DA38CA3892B09F453C0E88106
:100A1000F98180819C81892B8083ED81FE81808199
:100A20009985892B8083EA85FB8580819E85892B2A
:100A30008083E98DFA8D80819D8D892B8083EA8169
:100A4000FB8180819C81892B8083EF81F885908157
:100A50008985809589238083EC85FD8590818E85AD
:100A6000809589238083EB8DFC8D90818D8D809581
:100A700089238083D093E602C093E50287B3806B1D
:100A800087BB80E58DB97098C49ACE010E94AF04EF
:100A900018A690E080E0DF91CF9108958FEF9FEF4F
:100AA000FACF8FEF9FEFF7CF8FEF9FEFF4CF8FEF5E
:100AB0009FEFF1CF8FEF9FEFEECFDF92EF92FF929C
:100AC0000F931F93CF93DF93009709F475C0DC0158
:100AD00094960D911C9195970115110509F46CC020
:100AE0009096ED91FC9191976E177F0708F064C086
:100AF0009296ED91FC914E175F0708F05DC0D22EE3
:100B00007B01EC01CA010E948B044E8D9C01329541
:100B100022952F7023273F70232750E0249FB00198
:100B2000259F700D349F700D1124970136952795E0
:100B3000329522952F7023273F702327260F371FCA
:100B4000220F331F22953295307F3227207F3227A4
:100B5000B7016F717727620F731FEF8DE49F9001CC
:100B6000E59F300D1124220F331F220F331F8F708A
:100B70009927289FF001299FF00D389FF00D11242F
:100B8000CB01969587959695879596958795E80FCD
:100B9000F91F8EA19FA1E817F90770F467707727F6
:100BA000DB01A952BD4F8C91D1100EC0E00FF11F97
:100BB0008095908189238083DF91CF911F910F9140
:100BC000FF90EF90DF900895E00FF11F9081892B47
:100BD0008083F2CF2F923F924F925F926F927F92DB
:100BE0008F929F92AF92BF92CF92DF92EF92FF923D
:100BF0000F931F93CF93DF9300D000D0CDB7DEB714
:100C00009A838983009709F466C1DC0194968D91DB
:100C10009C919597892B09F45EC11296ED91FC91F8
:100C20001397808114969C911497892B80839896B2
:100C30008C91989780FF66C11796ED91FC9118975B
:100C4000908119962C91922B908381FD68C1A98186
:100C5000BA811C96ED91FC911D9790811E968C9106
:100C6000809589238083E981FA81FC83EB83868DDB
:100C7000278C829D900111243A83298320A58981A4
:100C80009A81880F991F880F991F289F8001299F9B
:100C9000100D112449805A80440C551C440C551CDD
:100CA000440C551C440C551C69807A80660C771CDA
:100CB000660C771C660C771C660C771C660C771C20
:100CC00080E3A981BA818A9F40018B9F900C1124F7
:100CD000AB2B09F4DAC05801BFEFAB1ABB0A6801AD
:100CE000E2E0CE0ED11C7801F3E0EF0EF11C312CC6
:100CF000212CAB81BC819496ED91FC91E80DF91DFE
:100D0000E00FF11F80810E947604AB81BC81949634
:100D1000ED91FC91E60DF71DE00FF11F80810E941F
:100D20007604AB81BC819496ED91FC91EA0DFB1D9C
:100D3000E80DF91D80810E947604AB81BC819496F8
:100D4000ED91FC91EA0DFB1DE60DF71D80810E94DF
:100D50007604AB81BC819496ED91FC91E40DF51D78
:100D6000E00FF11F80810E947604AB81BC819496D4
:100D7000ED91FC91E00FF11F80810E947604AB8120
:100D8000BC819496ED91FC91EA0DFB1DE40DF51DDF
:100D900080810E947604AB81BC819496ED91FC9198
:100DA000EA0DFB1D80810E947604AB81BC81949684
:100DB000ED91FC91E80DF91DEC0DFD1D80810E9467
:100DC0007604AB81BC819496ED91FC91E60DF71D04
:100DD000EC0DFD1D80810E947604AB81BC81949650
:100DE000ED91FC91E80DF91DEE0DFF1D80810E9433
:100DF0007604AB81BC819496ED91FC91E60DF71DD4
:100E0000EE0DFF1D80810E947604AB81BC8194961B
:100E1000ED91FC91E40DF51DEC0DFD1D80810E940E
:100E20007604AB81BC819496ED91FC91EC0DFD1D97
:100E300080810E947604AB81BC819496ED91FC91F7
:100E4000E40DF51DEE0DFF1D80810E947604AB813F
:100E5000BC819496ED91FC91EE0DFF1D80810E9466
:100E600076040C5F1F4FBFEF2B1A3B0AE4E0AE0E77
:100E7000B11CF4E0CF0ED11C24E0E20EF11C8981FC
:100E80009A818215930509F034CFAB81BC815B96C2
:100E9000ED91FC915C9780815D969C91892B80837C
:100EA000B3E0BA95F1F70000AB81BC815B96ED91A0
:100EB000FC915C9790815D968C915D9780958923DC
:100EC00080831296ED91FC911397908114968C91EA
:100ED0008095892380830F900F900F900F90DF9162
:100EE000CF911F910F91FF90EF90DF90CF90BF9027
:100EF000AF909F908F907F906F905F904F903F90BA
:100F00002F900895A981BA811796ED91FC911897B9
:100F1000208119969C9190959223908396CEA981D9
:100F2000BA811C96ED91FC911D9780811E969C9133
:100F3000892B808398CE0F931F93CF93DF938230BA
:100F4000910510F482E090E0E091D203F091D30398
:100F500030E020E0B0E0A0E0309799F421153105B1
:100F600009F44AC0281B390B24303105D8F58A8191
:100F70009B816115710589F1FB0193838283FE01D9
:100F800011C0408151810281138148175907E0F057
:100F90004817590799F4109761F012960C9312971D
:100FA00013961C933296CF01DF91CF911F910F9131
:100FB00008950093D2031093D303F4CF2115310584
:100FC00051F04217530738F0A901DB019A01BD0126
:100FD000DF01F801C1CFEF01F9CF9093D3038093E4
:100FE000D203CDCFFE01E20FF31F819391932250E4
:100FF000310939832883D7CF2091D0033091D10391
:10100000232B41F420916200309163003093D1038F
:101010002093D003209160003091610021153105AB
:1010200041F42DB73EB74091640050916500241BF8
:10103000350BE091D003F091D103E217F307A0F450
:101040002E1B3F0B2817390778F0AC014E5F5F4F1E
:101050002417350748F04E0F5F1F5093D10340937C
:10106000D003819391939FCFF0E0E0E09CCFCF93AA
:10107000DF930097E9F0FC01329713821282A0916E
:10108000D203B091D303ED0130E020E01097A1F43A
:1010900020813181820F931F2091D0033091D103A1
:1010A0002817390709F061C0F093D103E093D0030A
:1010B000DF91CF910895EA01CE17DF07E8F54A8165
:1010C0005B819E0141155105B1F7E901FB83EA837C
:1010D00049915991C40FD51FEC17FD0761F4808128
:1010E00091810296840F951FE901998388838281FB
:1010F00093819B838A83F0E0E0E012968D919C912E
:1011000013970097B9F52D913C911197CD01029657
:10111000820F931F2091D0033091D10328173907F4
:1011200039F6309751F51092D3031092D203B09351
:10113000D103A093D003BCCFD383C283408151811C
:10114000840F951FC817D90761F44E5F5F4F8881E0
:101150009981480F591F518340838A819B819383D2
:1011600082832115310509F0B0CFF093D303E093CA
:10117000D2039ECFFD01DC01C0CF13821282D7CFF4
:10118000FB01DC0102C001900D9241505040D8F7A4
:101190000895DC0101C06D9341505040E0F708957F
:1011A000FB01DC014150504048F001900D920020BD
:1011B000C9F701C01D9241505040E0F70895F894DE
:0211C000FFCF5F
:1011C2000000D403200031003200803A003B0002CC
:1011D2003A003B0004370038008037003800203ADC
:1011E200003B00100304001E200048454C4C4F20D9
:1011F200574F524C44200000000000000000000045
:1012020000000000000000000000000000000000DC
:1012120000000000000000000000000000000000CC
:1012220000000000000000000000537065656420AB
:10123200696E637265617365640D0A3E20005370C6
:10124200656564206465637265617365640D0A3E59
:101252002000446972656374696F6E3A204C65665A
:101262007420746F2052696768740D0A3E2000442E
:101272006972656374696F6E3A2052696768742097
:10128200746F204C6566740D0A3E200054657874B4
:10129200206D6F7665642075700D0A3E20005465DE
:1012A2007874206D6F76656420646F776E0D0A3EE8
:1012B20020004272696768746E65737320646563A7
:1012C2007265617365640D0A3E2000427269676847
:1012D200746E65737320696E637265617365640D04
:1012E2000A3E20004D657373616765207570646105
:1012F2007465643A2000564D41343139204C4544DE
:1013020020446973706C6179202D2055415254201C
:10131200436F6E74726F6C205265616479210D0A9D
:10132200005479706520796F7572206D65737361F1
:10133200676520616E6420707265737320456E74F8
:10134200657220746F20646973706C6179206F6EAE
:10135200204C4544206D61747269780D0A000D0AB3
:10136200427574746F6E20436F6E74726F6C73206B
:10137200285043302D504337293A0D0A005043304C
:101382003A205370656564205570202020207C200F
:101392005043313A20537065656420446F776E0D77
:1013A2000A005043323A204C6566742D3E526967FA
:1013B2006874207C205043333A2052696768742D48
:1013C2003E4C6566740D0A005043343A204D6F76E8
:1013D2006520557020202020207C205043353A2063
:1013E2004D6F766520446F776E0D0A005043363A92
:1013F2002044696D2020202020202020207C2050A5
:1014020043373A20427269676874656E0D0A004577
:1014120052524F523A20446973706C617920696E5E
:10142200697469616C697A6174696F6E2066616959
:101432006C6564210D0A008040201008040201003E
:00000001FF
