:100000000C9418010C9435010C9435010C943501B5
:100010000C9435010C9435010C9435010C94350188
:100020000C9435010C9435010C9435010C9412029A
:100030000C9435010C9435010C9435010C94350168
:100040000C9435010C9435010C9435010C94350158
:100050000C943501000000000000005F0000000764
:10006000000700147F147F14242A7F2A1223130808
:10007000646236495522500005030000001C2241ED
:10008000000041221C00082A1C2A0808083E080813
:1000900000503000000808080808006060000020D8
:1000A000100804023E5149453E00427F4000426133
:1000B0005149462141454B311814127F10274545BF
:1000C00045393C4A494930017109050336494949D6
:1000D00036064949291E0036360000005636000013
:1000E00000081422411414141414412214080002AC
:1000F00001510906324979413E7E1111117E7F4935
:100100004949363E414141227F4141221C7F4949B4
:1001100049417F090901013E414151327F080808E8
:100120007F00417F41002040413F017F0814224170
:100130007F404040407F0204027F7F0408107F3EE2
:100140004141413E7F090909063E4151215E7F0937
:10015000192946464949493101017F01013F404083
:10016000403F1F2040201F7F2018207F6314081469
:10017000630304780403615149454300007F414112
:10018000020408102041417F0000040201020440E3
:1001900040404040000102040020545454787F48FD
:1001A0004444383844444420384444487F38545404
:1001B0005418087E090102081454543C7F080404B2
:1001C0007800447D40002040443D00007F102844DA
:1001D00000417F40007C041804787C0804047838CF
:1001E000444444387C14141408081414187C7C0803
:1001F0000404084854545420043F4440203C4040E8
:10020000207C1C2040201C3C4030403C44281028CE
:10021000440C5050503C4464544C44000836410057
:1002200000007F0000004136080008082A1C080072
:1002300011241FBECFE5D4E0DEBFCDBF12E0A0E6A3
:10024000B0E0E0E0F7E102C005900D92AE3EB107EC
:10025000D9F723E0AEEEB2E001C01D92A038B2079C
:10026000E1F70E94FA020C947E0B0C9400006F924E
:100270007F928F929F92AF92BF92CF92DF92EF9236
:10028000FF920F931F93CF93DF930097C1F16C01FF
:100290000E944E070F2EF5EA8F2EF2E09F2EF02DD2
:1002A000F12CE12C0AC08FEFE81AF80AE4E08E0E78
:1002B000911CF0E1EF16F10411F15401612CF501EC
:1002C00001915F01762CC7E0D0E010E098010C2E80
:1002D00002C0359527950A94E2F72170672D70E0EA
:1002E000A701C6010E94FC0721977394CF3FDC074A
:1002F00069F7E8E06E0EF0E26F12E1CFD4CFDF9144
:10030000CF911F910F91FF90EF90DF90CF90BF9012
:10031000AF909F908F907F906F900895EF92FF9293
:100320000F931F93CF93DF93009709F459C0EC010B
:100330000E9437010F2EF4ECEF2EF9E0FF2EF02D86
:1003400004C091E0E91AF10879F010E018A7CE0195
:100350000E9489088FEC97E00197F1F700C0000038
:100360001F5F143099F7EDCF05E031C091E0E91A35
:10037000F10879F010E018A7CE010E9489088FECEF
:1003800097E00197F1F700C000001F5F143099F764
:10039000EDCFCE010E944E070F2EFAEFEF2EF12C7B
:1003A000F02D04C091E0E91AF10879F010E018A7E7
:1003B000CE010E9489088FEC97E00197F1F700C009
:1003C00000001F5F143099F7EDCF015049F0CE01C6
:1003D0000E9437010F2EFAEFEF2EF12CF02DCACF2D
:1003E000DF91CF911F910F91FF90EF90089590BDF5
:1003F00089B988E98AB986E880BD789408955D9BBB
:10040000FECF8CB90895CF93DF93EC0188818823C8
:1004100031F021960E94FF0189918111FBCFDF917C
:10042000CF9108951F920F920FB60F9211242F9320
:100430003F934F935F936F937F938F939F93AF936C
:10044000BF93CF93DF93EF93FF93CCB18C2F0E9498
:10045000FF01CD3001F1CA30F1F0C83009F460C0BD
:10046000CF3709F45DC080EE8C0F8F3508F043C0A4
:100470008091F00290E001968F7390782091EF02C6
:100480002817C9F1E091F002F0E0E45CFC4FC08372
:100490008093F00230C09091F0028091EF029817A3
:1004A00051F18091EF029091F0028917B9F1ACE11E
:1004B000B3E0E0E090E0EC01C45CDC4F28812D93D8
:1004C00001968F739078EF5F9091F002981711F07A
:1004D000EF3181F7F0E0E45EFC4F108281E0809321
:1004E000EE021092F0021092EF028DE00E94FF01E6
:1004F0008AE00E94FF01FF91EF91DF91CF91BF91C0
:10050000AF919F918F917F916F915F914F913F91AB
:100510002F910F900FBE0F901F901895E0E0DACF4B
:100520009091F0028091EF02981729F38091F002E8
:1005300090E0CF968F7390788093F00288E00E94CD
:10054000FF0180E20E94FF0188E00E94FF01D3CFFB
:100550000F931F93CF93DF932091EE02211105C0DB
:10056000DF91CF911F910F910895EC01062F10E0BC
:10057000A801415051096CE173E00E946F0BC00F5C
:10058000D11F219718821092EE02EACFCF93DF930A
:10059000E9E8F0E020E2DF011D922A95E9F7FC018D
:1005A00001900020E9F73197E81BEF3108F0EEE108
:1005B000CE2FD0E0AE01BC0189E890E00E945F0B35
:1005C000C757DF4F80E28883198280E290E09093E2
:1005D00088008093870089EA90E00E94030289E8FE
:1005E00090E00E9403028DE492E00E940302DF91FA
:1005F000CF910895CF93DF93CDB7DEB7AF970FB606
:10060000F894DEBF0FBECDBF2FEF30E742E02150A0
:1006100030404040E1F700C0000083E390E00E94DA
:10062000F70184B3887384BB85B3876C85BB5FEFA8
:1006300080E792E0515080409040E1F700C0000018
:1006400081E40E94FF01EFE1FEE43197F1F700C081
:1006500000008DE00E94FF018AE00E94FF018BEB09
:1006600090E00E94030286EE90E00E94030283E283
:1006700091E00E94030280918600843608F453C002
:1006800019E2819F812D112482958F70805D0E94D7
:10069000FF0180918600819F912D112492959F707A
:1006A000F4E69F9F801911241DEC819F812D112458
:1006B000869586958695805D0E94FF012091860033
:1006C000219F812D1124869586958695982F990FC7
:1006D000990F890F880F281B822F805D0E94FF01D0
:1006E0008BE291E00E940302809185008823F4F15F
:1006F00087EB90E00E9403028EE591E00E940302E6
:100700008FE492E00E94030221E041E066E670E09F
:1007100083EF92E00E945E07892B59F189E391E013
:100720000E940302FFCF8A30E8F01DEC819F812DEB
:100730001124869586958695805D0E94FF01209103
:100740008600219F812D1124869586958695982F68
:10075000990F990F890F880F281B822F805D0E94A7
:10076000FF01BECF805D0E94FF01BACF83EB90E016
:10077000C1CF83EF92E00E944E0781E691E00E9494
:1007800003026AE083EF92E00E948E018AE891E022
:100790000E9403028FE492E00E94030283EF92E042
:1007A0000E944E072FEF31EE44E021503040404090
:1007B000E1F700C0000084B3887384BB85B3876C05
:1007C00085BB5FE788E391E0515080409040E1F7BE
:1007D00000C0000083B381708BA783B386958170BE
:1007E0008CA783B382FB882780F98DA783B386FB10
:1007F000882780F98EA703B310E0000F012F001F98
:10080000110B0FA783EC91E00E9403028BA5805D82
:100810000E94FF018CA5805D0E94FF018DA5805D77
:100820000E94FF018EA5805D0E94FF0180E3800F82
:100830000E94FF018EE591E00E9403028DEC91E0A1
:100840000E9403028FE492E00E9403021EA21CA2F7
:100850001BA21AA219A205C01AA219A202C01AA2AA
:1008600019A28091EE02811151C0EEA1E111AAC13D
:1008700083B38170C82EF3B2F1FAFF24F0F8E3B22B
:10088000E2FAEE24E0F8D3B2D6FADD24D0F803B3CE
:1008900010E0000F012F001F110BB02EFBA5F81365
:1008A00049C02CA52F15E1F181E192E00E940302DD
:1008B00080E38C0D0E94FF0180E38F0D0E94FF01F9
:1008C00080E38E0D0E94FF0180E38D0D0E94FF01E9
:1008D00080E3800F0E94FF018EE591E00E940302F9
:1008E0004CA5413009F482C03DA5313009F4B8C0AF
:1008F0002EA5213009F4E6C09FA5913009F41DC151
:100900000FA7DEA6EDA6FCA6CBA65FC160E2CE01D6
:1009100001960E94A802CE0101960E94C602A5CFB0
:100920003DA53E11C1CF4EA54D11BECF5FA505130C
:10093000BBCFDACF81E192E00E94030280E38C0D0D
:100940000E94FF0180E38F0D0E94FF0180E38E0D66
:100950000E94FF0180E38D0D0E94FF0180E3800F64
:100960000E94FF018EE591E00E9403028BA5813079
:1009700019F03BA53EA3B4CFC110B2CF8091860041
:10098000863068F185508093860087E192E00E946E
:100990000302809186009DEC899F812D112486950C
:1009A00086958695805D0E94FF0180918600EDEC22
:1009B0008E9F912D1124292F269526952695922FCD
:1009C000990F990F920F990F891B805D0E94FF016B
:1009D0008DE492E00E940302F2E3FEA381CF80E265
:1009E00092E00E94030222E32EA37ACFF1107CCF83
:1009F00080918600843668F58B5F809386008EE256
:100A000092E00E940302809186005DEC859F812D1B
:100A10001124869586958695805D0E94FF018091C0
:100A20008600EDEC8E9F912D1124292F2695269579
:100A30002695922F990F990F920F990F891B805D20
:100A40000E94FF018DE492E00E940302F2E3FEA304
:100A50004BCF87E392E00E94030222E32EA344CF10
:100A6000E11046CF80918500819580938500882391
:100A7000E4F0E9E8F0E001900020E9F7CF018A58BE
:100A800090409C01220F331F220F331F821B930BB8
:100A9000880F991F909388008093870082E592E0E9
:100AA0000E940302F2E3FEA323CF40E250E0509302
:100AB00088004093870085E492E00E94030252E39D
:100AC0005EA316CFD11018CF80918400181674F54C
:100AD0008150809384008FE592E00E940302909100
:100AE000840037E69302812D11248595859597FD25
:100AF0008395805D0E94FF018091840047E6840217
:100B0000912D11249595959587FD9395292F220F69
:100B1000220F920F990F891B805D0E94FF018DE4C7
:100B200092E00E94030252E35EA3E6CE8BE692E0DF
:100B30000E94030282E38EA3DFCEB11073C08091C6
:100B400084008F309CF58F5F809384008BE792E068
:100B50000E94030290918400E7E69E02812D1124F9
:100B60008595859597FD8395805D0E94FF01809115
:100B70008400F7E68F02912D11249595959587FDB8
:100B80009395292F220F220F920F990F891B805DB9
:100B90000E94FF018DE492E00E9403020FA7DEA6EF
:100BA000EDA6FCA6CBA622E32EA30FC089E892E017
:100BB0000E9403020FA7DEA6EDA6FCA6CBA632E399
:100BC0003EA303C04EA141504EA38BA19CA1019610
:100BD0009CA38BA3883E934058F583EF92E00E943C
:100BE0004E07F0918400FDA38F2EFF0F99084090CF
:100BF000870050908800E9E8F0E08081882309F4BC
:100C0000B6C0F0E24F1651040CF0B1C00F2EFAE856
:100C10002F2EF0E03F2EF02D9401295F3F4F3AA791
:100C200029A779C00FA7DEA6EDA6FCA6CBA6CDCF3F
:100C3000D3B2E3B2F3B203B313B38CE992E00E94F0
:100C400003028D2D8170805D0E94FF01E1FA8827EB
:100C500080F9805D0E94FF01F2FA882780F9805DAB
:100C60000E94FF0106FB882780F9805D0E94FF013A
:100C7000812F881F8827881F805D0E94FF018DE4D7
:100C800092E00E9403021CA21BA2A7CF0F5F1F4F7E
:100C90004FEFE41AF40A07301105A9F030E1E3162A
:100CA000F104A0F7C601002E02C0959587950A941D
:100CB000E2F780FFEBCF21E0A701B50183EF92E0DF
:100CC0000E94FC07E3CF5FEFA51AB50AA614B7048C
:100CD00091F0F0E2AF16B104B0F7EFA1F8A5EA0D7C
:100CE000FB1DE4912DA1E22E220FFF0810E000E091
:100CF000CE2ED12CD3CF85E001C080E090E00196CC
:100D0000480E591EF10181911F01882381F1F0E203
:100D10004F16510464F580528F3578F730E1831611
:100D20009104FCF492012B5F3F4FEAF049A55AA5CC
:100D30005523DCF090E09C01220F331F220F331F5C
:100D4000820F931F320155E0650E711C520124E59C
:100D500030E024193509F901E80FF91FF8A7EFA3CE
:100D6000B8CF80E0CBCF85E0C9CF85E0C7CF10E01A
:100D70000F2EF3EFEF2EF2E0FF2EF02DF70110A76C
:100D8000C7010E9489088FEC97E00197F1F700C036
:100D900000001F5F143091F7E9A1FAA13196FAA380
:100DA000E9A3809186008E171F0611F008F059CD37
:100DB000609185004091870050918800460F511D39
:100DC00067FD5A955093880040938700E9E8F0E06A
:100DD00001900020E9F79F012A583040C901880F8F
:100DE000991F820F931F880F991F662374F0413259
:100DF00051050CF434CD919581959109909388001B
:100E0000809387001AA219A22CCD91958195910902
:100E1000481759070CF020CD20E230E030938800CD
:100E2000209387001AA219A21CCDCF93DF931F92A3
:100E3000CDB7DEB72091F1023091F202232B31F0D1
:100E40008FB9779BFECF8FB1898389810F90DF9116
:100E5000CF9108959C01237033272130310581F013
:100E6000C0F02230310579F02330310579F0AC0142
:100E70004C7F240F351F2031310570F4C9010895CE
:100E800030E020E0F4CF21E030E0F1CF22E030E0AC
:100E9000EECF23E030E0EBCF9C01F0CF009769F07C
:100EA000FC0124A135A12115310539F046A157A136
:100EB00070E060E0C9010E94680B0895CF93DF9352
:100EC000009709F48AC06115710509F489C04423AB
:100ED00009F489C0222309F489C0FB01EC018EE1E9
:100EE000DE0101900D928A95E1F74E8F2F8F50E031
:100EF000CA01880F991F82959295907F9827807FCD
:100F0000982799A388A330E0C90182959295907F94
:100F10009827807F98279BA38AA3429FC001439F65
:100F2000900D529F900D112400249695879507945B
:100F3000969587950794982F802D9FA38EA30E9446
:100F40003A0A9DA38CA3892B09F453C0E881F98147
:100F500080819C81892B8083ED81FE8180819985B0
:100F6000892B8083EA85FB8580819E85892B808300
:100F7000E98DFA8D80819D8D892B8083EA81FB81AB
:100F800080819C81892B8083EF81F8859081898580
:100F9000809589238083EC85FD8590818E85809561
:100FA00089238083EB8DFC8D90818D8D80958923A5
:100FB0008083D093F202C093F10287B3806B87BB2A
:100FC00080E58DB97098C49ACE010E944E0718A68C
:100FD00090E080E0DF91CF9108958FEF9FEFFACFFF
:100FE0008FEF9FEFF7CF8FEF9FEFF4CF8FEF9FEF54
:100FF000F1CF8FEF9FEFEECFDF92EF92FF920F9343
:101000001F93CF93DF93009709F475C0DC0194968A
:101010000D911C9195970115110509F46CC09096DE
:10102000ED91FC9191976E177F0708F064C092963E
:10103000ED91FC914E175F0708F05DC0D22E7B0149
:10104000EC01CA010E942A074E8D9C01329522951F
:101050002F7023273F70232750E0249FB001259F46
:10106000700D349F700D1124970136952795329598
:1010700022952F7023273F702327260F371F220F1B
:10108000331F22953295307F3227207F3227B701D8
:101090006F717727620F731FEF8DE49F9001E59FBB
:1010A000300D1124220F331F220F331F8F70992709
:1010B000289FF001299FF00D389FF00D1124CB01DE
:1010C000969587959695879596958795E80FF91F3C
:1010D0008EA19FA1E817F90770F467707727DB01ED
:1010E000AB51BD4F8C91D1100EC0E00FF11F809518
:1010F000908189238083DF91CF911F910F91FF9081
:10110000EF90DF900895E00FF11F9081892B80838D
:10111000F2CF2F923F924F925F926F927F928F9277
:101120009F92AF92BF92CF92DF92EF92FF920F9376
:101130001F93CF93DF9300D000D0CDB7DEB79A8353
:101140008983009709F466C1DC0194968D919C9186
:101150009597892B09F45EC11296ED91FC91139736
:10116000808114969C911497892B808398968C91FA
:10117000989780FF66C11796ED91FC911897908122
:1011800019962C91922B908381FD68C1A981BA8117
:101190001C96ED91FC911D9790811E968C918095E7
:1011A00089238083E981FA81FC83EB83868D278CF8
:1011B000829D900111243A83298320A589819A81F7
:1011C000880F991F880F991F289F8001299F100D54
:1011D000112449805A80440C551C440C551C440C65
:1011E000551C440C551C69807A80660C771C660C73
:1011F000771C660C771C660C771C660C771C80E3EA
:10120000A981BA818A9F40018B9F900C1124AB2B3E
:1012100009F4DAC05801BFEFAB1ABB0A6801E2E07B
:10122000CE0ED11C7801F3E0EF0EF11C312C212CF5
:10123000AB81BC819496ED91FC91E80DF91DE00F16
:10124000F11F80810E941507AB81BC819496ED91BE
:10125000FC91E60DF71DE00FF11F80810E9415073C
:10126000AB81BC819496ED91FC91EA0DFB1DE80DDC
:10127000F91D80810E941507AB81BC819496ED9188
:10128000FC91EA0DFB1DE60DF71D80810E941507FC
:10129000AB81BC819496ED91FC91E40DF51DE00FBE
:1012A000F11F80810E941507AB81BC819496ED915E
:1012B000FC91E00FF11F80810E941507AB81BC817A
:1012C0009496ED91FC91EA0DFB1DE40DF51D8081D6
:1012D0000E941507AB81BC819496ED91FC91EA0DBB
:1012E000FB1D80810E941507AB81BC819496ED9116
:1012F000FC91E80DF91DEC0DFD1D80810E94150784
:10130000AB81BC819496ED91FC91E60DF71DEC0D3F
:10131000FD1D80810E941507AB81BC819496ED91E3
:10132000FC91E80DF91DEE0DFF1D80810E9415074F
:10133000AB81BC819496ED91FC91E60DF71DEE0D0D
:10134000FF1D80810E941507AB81BC819496ED91B1
:10135000FC91E40DF51DEC0DFD1D80810E9415072B
:10136000AB81BC819496ED91FC91EC0DFD1D8081CB
:101370000E941507AB81BC819496ED91FC91E40D20
:10138000F51DEE0DFF1D80810E941507AB81BC810C
:101390009496ED91FC91EE0DFF1D80810E94150742
:1013A0000C5F1F4FBFEF2B1A3B0AE4E0AE0EB11CDF
:1013B000F4E0CF0ED11C24E0E20EF11C89819A8169
:1013C0008215930509F034CFAB81BC815B96ED911A
:1013D000FC915C9780815D969C91892B8083B3E022
:1013E000BA95F1F70000AB81BC815B96ED91FC9161
:1013F0005C9790815D968C915D9780958923808321
:101400001296ED91FC911397908114968C91809592
:10141000892380830F900F900F900F90DF91CF91D1
:101420001F910F91FF90EF90DF90CF90BF90AF9002
:101430009F908F907F906F905F904F903F902F90F4
:101440000895A981BA811796ED91FC911897208192
:1014500019969C9190959223908396CEA981BA81FA
:101460001C96ED91FC911D9780811E969C91892B75
:10147000808398CE0F931F93CF93DF938230910593
:1014800010F482E090E0E0917E03F0917F0330E081
:1014900020E0B0E0A0E0309799F42115310509F47F
:1014A0004AC0281B390B24303105D8F58A819B812D
:1014B0006115710589F1FB0193838283FE0111C0DF
:1014C000408151810281138148175907E0F0481784
:1014D000590799F4109761F012960C93129713968E
:1014E0001C933296CF01DF91CF911F910F910895F8
:1014F00000937E0310937F03F4CF2115310551F043
:101500004217530738F0A901DB019A01BD01DF0141
:10151000F801C1CFEF01F9CF90937F0380937E0351
:10152000CDCFFE01E20FF31F819391932250310939
:1015300039832883D7CF20917C0330917D03232BDF
:1015400041F4209162003091630030937D03209339
:101550007C0320916000309161002115310541F438
:101560002DB73EB74091640050916500241B350BA8
:10157000E0917C03F0917D03E217F307A0F42E1BAA
:101580003F0B2817390778F0AC014E5F5F4F2417E7
:10159000350748F04E0F5F1F50937D0340937C0347
:1015A000819391939FCFF0E0E0E09CCFCF93DF93C6
:1015B0000097E9F0FC01329713821282A0917E031A
:1015C000B0917F03ED0130E020E01097A1F420817D
:1015D0003181820F931F20917C0330917D03281766
:1015E000390709F061C0F0937D03E0937C03DF913C
:1015F000CF910895EA01CE17DF07E8F54A815B81B4
:101600009E0141155105B1F7E901FB83EA83499138
:101610005991C40FD51FEC17FD0761F480819181AA
:101620000296840F951FE9019983888382819381B3
:101630009B838A83F0E0E0E012968D919C91139752
:101640000097B9F52D913C911197CD010296820F2B
:10165000931F20917C0330917D032817390739F6B9
:10166000309751F510927F0310927E03B0937D0363
:10167000A0937C03BCCFD383C28340815181840F6C
:10168000951FC817D90761F44E5F5F4F8881998114
:10169000480F591F518340838A819B8193838283A2
:1016A0002115310509F0B0CFF0937F03E0937E035D
:1016B0009ECFFD01DC01C0CF13821282D7CFFB0188
:1016C000DC0102C001900D9241505040D8F70895BE
:1016D000DC0101C06D9341505040E0F70895FB01DB
:1016E000DC014150504048F001900D920020C9F7B4
:1016F00001C01D9241505040E0F70895F894FFCF8B
:1017000000008003200031003200803A003B0002DC
:101710003A003B0004370038008037003800203A98
:10172000003B001004FF1E200057454C434F4D4521
:1017300020455241534D55532053545544454E5422
:10174000530000000000000000557064617465647F
:101750003A2000523E4C004C3E5200564D4134312E
:1017600039204C454420446973706C6179202D20E8
:101770005541525420436F6E74726F6C20526561F4
:101780006479210D0A005479706520796F75722093
:101790006D65737361676520616E64207072657337
:1017A0007320456E74657220746F20646973706C69
:1017B0006179206F6E204C4544206D6174726978A8
:1017C0000D0A0053706565643A20000D0A44697281
:1017D000656374696F6E3A20004552524F523A2049
:1017E000446973706C617920696E697469616C69B0
:1017F0007A6174696F6E206661696C6564210D0A97
:1018000000446973706C6179696E67204645534284
:10181000204C6F676F20666F7220313020736563D4
:101820006F6E64732E2E2E0D0A0046455342204CD7
:101830006F676F20646973706C617920636F6D707E
:101840006C6574652E205374617274696E672073C1
:1018500063726F6C6C696E6720746578742E2E2EBF
:101860000D0A00427574746F6E733A2000436F6EF8
:1018700074726F6C733A205043303D5370656564E9
:101880002B2C205043313D53706565642D2C205026
:1018900043323D546F67676C654469722C20504336
:1018A000363D55702C205043373D446F776E0D0AFE
:1018B0000042746E3A200053706565642B3A200034
:1018C0005370656564204D41580D0A3E20005370E9
:1018D0006565642D3A20005370656564204D494E5E
:1018E0000D0A3E20004469723A20523E4C0D0A3ED9
:1018F00020004469723A204C3E520D0A3E200054AA
:101900006578742055703A20593D005465787420EC
:10191000617420544F500D0A3E20005465787420A5
:10192000446F776E3A20593D005465787420617495
:1019300020424F54544F4D0D0A3E200053746174A1
:1019400075733A200000000000000000001FBF7FF8
:10195000F83F7FFFFC7870F21C7060E00E6040E0A2
:101960001C5FBFFDFC3F7F7EFC78700E1C70600624
:101970000E70721E1C707FFEFC703FFDF8000000B0
:0E19800000000000008040201008040201005A
:00000001FF
