:100000000C9418010C9435010C9435010C943501B5
:100010000C9435010C9435010C9435010C94350188
:100020000C9435010C9435010C9435010C94350178
:100030000C9435010C9435010C9435010C94350168
:100040000C9435010C9435010C9435010C94350158
:100050000C943501000000000000005F0000000764
:10006000000700147F147F14242A7F2A1223130808
:10007000646236495522500005030000001C2241ED
:10008000000041221C00082A1C2A0808083E080813
:1000900000503000000808080808006060000020D8
:1000A000100804023E5149453E00427F4000426133
:1000B0005149462141454B311814127F10274545BF
:1000C00045393C4A494930017109050336494949D6
:1000D00036064949291E0036360000005636000013
:1000E00000081422411414141414412214080002AC
:1000F00001510906324979413E7E1111117E7F4935
:100100004949363E414141227F4141221C7F4949B4
:1001100049417F090901013E414151327F080808E8
:100120007F00417F41002040413F017F0814224170
:100130007F404040407F0204027F7F0408107F3EE2
:100140004141413E7F090909063E4151215E7F0937
:10015000192946464949493101017F01013F404083
:10016000403F1F2040201F7F2018207F6314081469
:10017000630304780403615149454300007F414112
:10018000020408102041417F0000040201020440E3
:1001900040404040000102040020545454787F48FD
:1001A0004444383844444420384444487F38545404
:1001B0005418087E090102081454543C7F080404B2
:1001C0007800447D40002040443D00007F102844DA
:1001D00000417F40007C041804787C0804047838CF
:1001E000444444387C14141408081414187C7C0803
:1001F0000404084854545420043F4440203C4040E8
:10020000207C1C2040201C3C4030403C44281028CE
:10021000440C5050503C4464544C44000836410057
:1002200000007F0000004136080008082A1C080072
:1002300011241FBECFE5D4E0DEBFCDBF10E0A0E6A5
:10024000B0E0ECE2FDE002C005900D92AC39B107E0
:10025000D9F720E0ACE9B0E001C01D92AB3CB20799
:10026000E1F70E9437010C9494060C94000021E001
:1002700041E066E670E08EE990E00E947902892B09
:1002800009F0FFCF8EE990E00E9469020F2EF4E59D
:100290002F2EF0E03F2EF02DA6C02196CB30D105B9
:1002A000A9F0CE010497C031D105B8F7F70102C01B
:1002B000F595E7958A95E2F7E0FFEFCF21E0AE01F3
:1002C000B8018EE990E00E942A03E7CF0F5F1F4F2D
:1002D0000C151D0561F000321105C0F7F501E00FA6
:1002E000F11FE491C4E0D0E0EE2EF12CDACF85E0EE
:1002F00090E00196880E991EF30101913F010023C1
:1003000009F1F0E28F169104ECF4005280E00F3511
:1003100078F7C4010596A2F0A02EB12CC501880F74
:10032000991F880F991FA80EB91E640125E0C20EFF
:10033000D11C8401C10188199909A80EB91ECBCF1F
:1003400085E0D6CFC0E00EE910E0F801C0A7C801F3
:100350000E94B70389EF90E00197F1F700C0000019
:10036000CF5FC43091F79FEF491A590A80918400FA
:1003700084151504C9F0C0F08EE990E00E9469026E
:100380008090850090908600E7E8F0E000810023EF
:10039000C9F2F0E28F169104ACF60F2EF8E86F2E3A
:1003A000F0E07F2EF02DB1CF2091850030918600B6
:1003B000215031093093860020938500E7E8F0E072
:1003C00001900020E9F7AF0148585040CA01880F5A
:1003D000991F840F951F880F991F919581959109F9
:1003E000281739071CF0512C412CC6CF20E230E0F1
:1003F0003093860020938500F6CF9C01237033272D
:100400002130310581F0C0F02230310579F0233000
:10041000310579F0AC014C7F240F351F20313105B7
:1004200070F4C901089530E020E0F4CF21E030E01D
:10043000F1CF22E030E0EECF23E030E0EBCF9C01C3
:10044000F0CF20919C0030919D00232B09F440C0F7
:1004500028E02DC0A0919C00B0919D005696ED9192
:10046000FC915797908158963C91932B9083A09143
:100470009C00B0919D005196ED91FC915297908116
:1004800053963C91932B908300C0A0919C00B09117
:100490009D005196ED91FC915297308153969C911D
:1004A00090959323908300C0880F215089F0882372
:1004B0008CF2A0919C00B0919D005696ED91FC911C
:1004C0005797308158969C91909593239083CFCFE6
:1004D0000895009769F0FC0124A135A1211531058B
:1004E00039F046A157A170E060E0C9010E948D0675
:1004F0000895CF93DF93009709F49DC061157105AE
:1005000009F49CC0442309F49CC0222309F49CC034
:10051000FB01EC018EE1DE0101900D928A95E1F77D
:100520004E8F2F8F50E0CA01880F991F82959295A8
:10053000907F9827807F982799A388A330E0C901EE
:1005400082959295907F9827807F98279BA38AA376
:10055000429FC001439F900D529F900D1124002493
:10056000969587950794969587950794982F802D53
:100570009FA38EA30E9468059DA38CA3892B09F4D9
:1005800066C0E881F98180819C81892B8083ED811F
:10059000FE8180819985892B8083EA85FB85808116
:1005A0009E85892B8083E98DFA8D80819D8D892B95
:1005B0008083EF85F88980819B89892B8083EC89F2
:1005C000FD898081988D892B8083EA81FB818081E0
:1005D0009C81892B8083EF81F88590818985809526
:1005E00089238083EC85FD8590818E858095892384
:1005F0008083EB8DFC8D90818D8D80958923808308
:10060000E989FA8990818B89809589238083EE8995
:10061000FF899081888D809589238083D0939D0068
:10062000C0939C00CE010E94690218A690E080E071
:10063000DF91CF9108958FEF9FEFFACF8FEF9FEF6C
:10064000F7CF8FEF9FEFF4CF8FEF9FEFF1CF8FEFCB
:100650009FEFEECFDF92EF92FF920F931F93CF9316
:10066000DF93009709F475C0DC0194960D911C91FD
:1006700095970115110509F46CC09096ED91FC91C8
:1006800091976E177F0708F064C09296ED91FC91E8
:100690004E175F0708F05DC0D22E7B01EC01CA0146
:1006A0000E94FD014E8D9C01329522952F702327CB
:1006B0003F70232750E0249FB001259F700D349F89
:1006C000700D1124970136952795329522952F703C
:1006D00023273F702327260F371F220F331F229512
:1006E0003295307F3227207F3227B7016F7177270D
:1006F000620F731FEF8DE49F9001E59F300D112471
:10070000220F331F220F331F8F709927289FF0016C
:10071000299FF00D389FF00D1124CB0196958795F8
:100720009695879596958795E80FF91F8EA19FA1BD
:10073000E817F90770F467707727DB01AC56BF4FF5
:100740008C91D1100EC0E00FF11F8095908189230C
:100750008083DF91CF911F910F91FF90EF90DF90F9
:100760000895E00FF11F9081892B8083F2CF2F92A3
:100770003F924F925F926F927F928F929F92AF9231
:10078000BF92CF92DF92EF92FF920F931F93CF937E
:10079000DF9300D000D0CDB7DEB79A83898300976E
:1007A00009F466C1DC0194968D919C919597892BF3
:1007B00009F45EC11296ED91FC9113978081149615
:1007C0009C911497892B808398968C91989780FFA1
:1007D00066C11796ED91FC911897908119962C910E
:1007E000922B908381FD68C1A981BA811C96ED91FD
:1007F000FC911D9790811E968C9180958923808312
:10080000E981FA81FC83EB83868D278C829D9001A0
:1008100011243A83298320A589819A81880F991F01
:10082000880F991F289F8001299F100D112449804E
:100830005A80440C551C440C551C440C551C440C4B
:10084000551C69807A80660C771C660C771C660CD8
:10085000771C660C771C660C771C80E3A981BA8133
:100860008A9F40018B9F900C1124AB2B09F4DAC0B6
:100870005801BFEFAB1ABB0A6801E2E0CE0ED11CF3
:100880007801F3E0EF0EF11C312C212CAB81BC81FF
:100890009496ED91FC91E80DF91DE00FF11F808118
:1008A0000E942102AB81BC819496ED91FC91E60DF2
:1008B000F71DE00FF11F80810E942102AB81BC81F6
:1008C0009496ED91FC91EA0DFB1DE80DF91D8081D8
:1008D0000E942102AB81BC819496ED91FC91EA0DBE
:1008E000FB1DE60DF71D80810E942102AB81BC81BA
:1008F0009496ED91FC91E40DF51DE00FF11F8081C0
:100900000E942102AB81BC819496ED91FC91E00F95
:10091000F11F80810E942102AB81BC819496ED91F0
:10092000FC91EA0DFB1DE40DF51D80810E94210262
:10093000AB81BC819496ED91FC91EA0DFB1D808109
:100940000E942102AB81BC819496ED91FC91E80D4F
:10095000F91DEC0DFD1D80810E942102AB81BC813F
:100960009496ED91FC91E60DF71DEC0DFD1D808137
:100970000E942102AB81BC819496ED91FC91E80D1F
:10098000F91DEE0DFF1D80810E942102AB81BC810B
:100990009496ED91FC91E60DF71DEE0DFF1D808103
:1009A0000E942102AB81BC819496ED91FC91E40DF3
:1009B000F51DEC0DFD1D80810E942102AB81BC81E3
:1009C0009496ED91FC91EC0DFD1D80810E94210219
:1009D000AB81BC819496ED91FC91E40DF51DEE0D7B
:1009E000FF1D80810E942102AB81BC819496ED9114
:1009F000FC91EE0DFF1D80810E9421020C5F1F4FB4
:100A0000BFEF2B1A3B0AE4E0AE0EB11CF4E0CF0EB0
:100A1000D11C24E0E20EF11C89819A818215930594
:100A200009F034CFAB81BC815B96ED91FC915C9772
:100A300080815D969C91892B8083B3E0BA95F1F714
:100A40000000AB81BC815B96ED91FC915C9790813D
:100A50005D968C915D978095892380831296ED91A8
:100A6000FC911397908114968C91809589238083B3
:100A70000F900F900F900F90DF91CF911F910F91DA
:100A8000FF90EF90DF90CF90BF90AF909F908F90AE
:100A90007F906F905F904F903F902F900895A98125
:100AA000BA811796ED91FC911897208119969C9127
:100AB00090959223908396CEA981BA811C96ED9150
:100AC000FC911D9780811E969C91892B808398CEE6
:100AD0000F931F93CF93DF938230910510F482E040
:100AE00090E0E091C900F091CA0030E020E0B0E071
:100AF000A0E0309799F42115310509F44AC0281B6C
:100B0000390B24303105D8F58A819B816115710537
:100B100089F1FB0193838283FE0111C040815181E1
:100B20000281138148175907E0F04817590799F4D3
:100B3000109761F012960C93129713961C933296AD
:100B4000CF01DF91CF911F910F9108950093C900BC
:100B50001093CA00F4CF2115310551F04217530705
:100B600038F0A901DB019A01BD01DF01F801C1CF15
:100B7000EF01F9CF9093CA008093C900CDCFFE0159
:100B8000E20FF31F81939193225031093983288317
:100B9000D7CF2091C7003091C800232B41F420917A
:100BA0006200309163003093C8002093C700209109
:100BB0006000309161002115310541F42DB73EB739
:100BC0004091640050916500241B350BE091C700F3
:100BD000F091C800E217F307A0F42E1B3F0B281773
:100BE000390778F0AC014E5F5F4F2417350748F0A6
:100BF0004E0F5F1F5093C8004093C700819391939D
:100C00009FCFF0E0E0E09CCFCF93DF930097E9F037
:100C1000FC01329713821282A091C900B091CA00E0
:100C2000ED0130E020E01097A1F420813181820FA6
:100C3000931F2091C7003091C8002817390709F089
:100C400061C0F093C800E093C700DF91CF91089591
:100C5000EA01CE17DF07E8F54A815B819E01411565
:100C60005105B1F7E901FB83EA8349915991C40F1A
:100C7000D51FEC17FD0761F4808191810296840FE6
:100C8000951FE90199838883828193819B838A835D
:100C9000F0E0E0E012968D919C9113970097B9F5E2
:100CA0002D913C911197CD010296820F931F2091B7
:100CB000C7003091C8002817390739F6309751F529
:100CC0001092CA001092C900B093C800A093C70048
:100CD000BCCFD383C28340815181840F951FC81735
:100CE000D90761F44E5F5F4F88819981480F591F82
:100CF000518340838A819B819383828321153105AF
:100D000009F0B0CFF093CA00E093C9009ECFFD0177
:100D1000DC01C0CF13821282D7CFDC0101C06D93FA
:0C0D200041505040E0F70895F894FFCFD8
:100D2C000000CB00200031003200803A003B000272
:100D3C003A003B0004370038008037003800203A76
:100D4C00003B001032200048454C4C4F20574F526E
:0C0D5C004C4420008040201008040201DC
:00000001FF
