:100000000C9418010C9435010C9435010C943501B5
:100010000C9435010C9435010C9435010C94350188
:100020000C9435010C9435010C9435010C9412029A
:100030000C9435010C9435010C9435010C94350168
:100040000C9435010C9435010C9435010C94350158
:100050000C943501000000000000005F0000000764
:10006000000700147F147F14242A7F2A1223130808
:10007000646236495522500005030000001C2241ED
:10008000000041221C00082A1C2A0808083E080813
:1000900000503000000808080808006060000020D8
:1000A000100804023E5149453E00427F4000426133
:1000B0005149462141454B311814127F10274545BF
:1000C00045393C4A494930017109050336494949D6
:1000D00036064949291E0036360000005636000013
:1000E00000081422411414141414412214080002AC
:1000F00001510906324979413E7E1111117E7F4935
:100100004949363E414141227F4141221C7F4949B4
:1001100049417F090901013E414151327F080808E8
:100120007F00417F41002040413F017F0814224170
:100130007F404040407F0204027F7F0408107F3EE2
:100140004141413E7F090909063E4151215E7F0937
:10015000192946464949493101017F01013F404083
:10016000403F1F2040201F7F2018207F6314081469
:10017000630304780403615149454300007F414112
:10018000020408102041417F0000040201020440E3
:1001900040404040000102040020545454787F48FD
:1001A0004444383844444420384444487F38545404
:1001B0005418087E090102081454543C7F080404B2
:1001C0007800447D40002040443D00007F102844DA
:1001D00000417F40007C041804787C0804047838CF
:1001E000444444387C14141408081414187C7C0803
:1001F0000404084854545420043F4440203C4040E8
:10020000207C1C2040201C3C4030403C44281028CE
:10021000440C5050503C4464544C44000836410057
:1002200000007F0000004136080008082A1C080072
:1002300011241FBECFE5D4E0DEBFCDBF12E0A0E6A3
:10024000B0E0E0EAF5E102C005900D92AC3CB107E8
:10025000D9F723E0ACECB2E001C01D92A235B207A1
:10026000E1F70E94FA020C94CE0A0C9400006F92FF
:100270007F928F929F92AF92BF92CF92DF92EF9236
:10028000FF920F931F93CF93DF930097C1F16C01FF
:100290000E94A2060F2EF4E88F2EF2E09F2EF02D82
:1002A000F12CE12C0AC08FEFE81AF80AE4E08E0E78
:1002B000911CF0E1EF16F10411F15401612CF501EC
:1002C00001915F01762CC7E0D0E010E098010C2E80
:1002D00002C0359527950A94E2F72170672D70E0EA
:1002E000A701C6010E944C0721977394CF3FDC07FA
:1002F00069F7E8E06E0EF0E26F12E1CFD4CFDF9144
:10030000CF911F910F91FF90EF90DF90CF90BF9012
:10031000AF909F908F907F906F900895EF92FF9293
:100320000F931F93CF93DF93009709F459C0EC010B
:100330000E9437010F2EF4ECEF2EF9E0FF2EF02D86
:1003400004C091E0E91AF10879F010E01E8FCE01A7
:100350000E94D9078FEC97E00197F1F700C00000E9
:100360001F5F143099F7EDCF05E031C091E0E91A35
:10037000F10879F010E01E8FCE010E94D9078FECB2
:1003800097E00197F1F700C000001F5F143099F764
:10039000EDCFCE010E94A2060F2EFAEFEF2EF12C28
:1003A000F02D04C091E0E91AF10879F010E01E8FF9
:1003B000CE010E94D9078FEC97E00197F1F700C0BA
:1003C00000001F5F143099F7EDCF015049F0CE01C6
:1003D0000E9437010F2EFAEFEF2EF12CF02DCACF2D
:1003E000DF91CF911F910F91FF90EF90089590BDF5
:1003F00089B988E98AB986E880BD789408955D9BBB
:10040000FECF8CB90895CF93DF93EC0188818823C8
:1004100031F021960E94FF0189918111FBCFDF917C
:10042000CF9108951F920F920FB60F9211242F9320
:100430003F934F935F936F937F938F939F93AF936C
:10044000BF93CF93DF93EF93FF93CCB18C2F0E9498
:10045000FF01CD3001F1CA30F1F0C83009F460C0BD
:10046000CF3709F45DC080EE8C0F8F3508F043C0A4
:100470008091CE0290E001968F7390782091CD020A
:100480002817C9F1E091CE02F0E0E25FFC4FC08393
:100490008093CE0230C09091CE028091CD02981709
:1004A00051F18091CD029091CE028917B9F1AEEE53
:1004B000B2E0E0E090E0EC01C25FDC4F28812D93D8
:1004C00001968F739078EF5F9091CE02981711F09C
:1004D000EF3181F7F0E0E251FD4F108281E080932F
:1004E000CC021092CE021092CD028DE00E94FF014C
:1004F0008AE00E94FF01FF91EF91DF91CF91BF91C0
:10050000AF919F918F917F916F915F914F913F91AB
:100510002F910F900FBE0F901F901895E0E0DACF4B
:100520009091CE028091CD02981729F38091CE024E
:1005300090E0CF968F7390788093CE0288E00E94EF
:10054000FF0180E20E94FF0188E00E94FF01D3CFFB
:100550000F931F93CF93DF932091CC02211105C0FD
:10056000DF91CF911F910F910895EC01062F10E0BC
:10057000A801415051096EEE72E00E94BF0AC00FFF
:10058000D11F219718821092CC02EACFCF93DF932C
:10059000EFE7F0E020E2DF011D922A95E9F7FC0188
:1005A00001900020E9F73197E81BEF3108F0EEE108
:1005B000CE2FD0E0AE01BC018FE790E00E94AF0AE1
:1005C000C158DF4F80E28883198280E290E09093E7
:1005D0007E0080937D008FE990E00E9403028FE708
:1005E00090E00E9403028FE792E00E940302DF91F5
:1005F000CF910895CF93DF93CDB7DEB7AD970FB608
:10060000F894DEBF0FBECDBF2FEF30E742E02150A0
:1006100030404040E1F700C0000083E390E00E94DA
:10062000F70184B3887384BB85B3876C85BB5FEFA8
:1006300080E792E0515080409040E1F700C0000018
:1006400081E40E94FF01EFE1FEE43197F1F700C081
:1006500000008DE00E94FF018AE00E94FF0181EB13
:1006600090E00E9403028CED90E00E94030289E179
:1006700091E00E94030280917C00843608F44FC010
:1006800019E2819F812D112482958F70805D0E94D7
:10069000FF0180917C00819F912D112492959F7084
:1006A000F4E69F9F801911241DEC819F812D112458
:1006B000869586958695805D0E94FF0120917C003D
:1006C000219F812D1124869586958695982F990FC7
:1006D000990F890F880F281B822F805D0E94FF01D0
:1006E00081E291E00E94030280917B008823D4F193
:1006F0008DEA90E00E9403028FE792E00E940302DD
:1007000021E041E066E670E08FEC92E00E94B206E4
:10071000892B59F18FE291E00E940302FFCF8A30CA
:10072000E8F01DEC819F812D112486958695869594
:10073000805D0E94FF0120917C00219F812D11246A
:10074000869586958695982F990F990F890F880F12
:10075000281B822F805D0E94FF01C2CF805D0E9416
:10076000FF01BECF89EA90E0C5CF8FEC92E00E94F6
:10077000A20687E591E00E9403026AE08FEC92E016
:100780000E948E0180E891E00E94030281E892E0DD
:100790000E9403028FEC92E00E94A2062FEF31EE3E
:1007A00044E0215030404040E1F700C0000084B3F5
:1007B000887384BB5FE788E391E0515080409040AC
:1007C000E1F700C0000083B3817089A783B38695E9
:1007D00081708AA783B382FB882780F98BA783B3B4
:1007E00086FB882780F98CA783B3881F8827881FFA
:1007F0008DA789EB91E00E94030281E892E00E94BC
:1008000003021CA21AA219A205C01AA219A202C0B0
:100810001AA219A28091CC02811134C0ECA1E1117D
:1008200061C183B38170C82EF3B2F1FAFF24F0F8EE
:10083000E3B2E2FAEE24E0F8D3B2D6FADD24D0F83F
:1008400003B310E0000F012F001F110BB02EF9A50C
:10085000F13011F189A58CA39AA5913009F456C005
:100860004BA5413009F48CC02CA5213009F4BAC045
:100870009DA5913009F4F1C00DA7DCA6EBA6FAA660
:10088000C9A633C160E2CE0101960E94A802CE0142
:1008900001960E94C602C2CF8111DECF80917C00FA
:1008A000863068F1855080937C008DEF91E00E9446
:1008B000030280917C002DEC829F812D112486956E
:1008C00086958695805D0E94FF0180917C003DECBD
:1008D000839F912D1124292F269526952695922FB9
:1008E000990F990F920F990F891B805D0E94FF014C
:1008F0008FE792E00E94030242E34CA3ADCF86E073
:1009000092E00E94030252E35CA3A6CFF110A8CFAD
:1009100080917C00843668F58B5F80937C0084E155
:1009200092E00E94030280917C00EDEC8E9F812D6D
:100930001124869586958695805D0E94FF018091A1
:100940007C00FDEC8F9F912D1124292F2695269553
:100950002695922F990F990F920F990F891B805D01
:100960000E94FF018FE792E00E94030222E32CA382
:1009700077CF8DE192E00E94030232E33CA370CF77
:10098000E11072CF80917B00819580937B0088235A
:10099000E4F0EFE7F0E001900020E9F7CF018058A4
:1009A00090409C01220F331F220F331F821B930B99
:1009B000880F991F90937E0080937D0089E392E0D9
:1009C0000E940302F2E3FCA34FCF80E290E09093F9
:1009D0007E0080937D008BE292E00E94030292E30E
:1009E0009CA342CFD11044CF80917A00181674F5A1
:1009F000815080937A0087E492E00E9403029091F4
:100A00007A0037E69302812D11248595859597FD0F
:100A10008395805D0E94FF0180917A0047E6840201
:100A2000912D11249595959587FD9395292F220F4A
:100A3000220F920F990F891B805D0E94FF018FE7A3
:100A400092E00E94030252E35CA312CF83E592E09E
:100A50000E94030282E38CA30BCFB1106BC0809184
:100A60007A008F309CF58F5F80937A0083E692E066
:100A70000E94030290917A00E7E69E02812D1124E4
:100A80008595859597FD8395805D0E94FF018091F6
:100A90007A00F7E68F02912D11249595959587FDA3
:100AA0009395292F220F220F920F990F891B805D9A
:100AB0000E94FF018FE792E00E9403020DA7DCA6CF
:100AC000EBA6FAA6C9A622E32CA30FC081E792E009
:100AD0000E9403020DA7DCA6EBA6FAA6C9A632E384
:100AE0003CA303C04CA141504CA38FEC92E00E9468
:100AF000A20650917A005BA3852E550F990840906D
:100B00007D0050907E00EFE7F0E08081882309F4BB
:100B100088C0F0E24F1651040CF083C00F2EF0E8AD
:100B20002F2EF0E03F2EF02D9401295F3F4F38A784
:100B30002FA34BC00DA7DCA6EBA6FAA6C9A6D5CF5E
:100B40000F5F1F4F4FEFE41AF40A07301105A9F0A9
:100B500030E1E316F104A0F7C601002E02C095951E
:100B600087950A94E2F780FFEBCF21E0A701B5015A
:100B70008FEC92E00E944C07E3CF5FEFA51AB50A15
:100B80006A147B0491F0F0E2AF16B104B0F7EDA166
:100B9000FEA1EA0DFB1DE4912BA1E22E220FFF081E
:100BA00010E000E0CE2ED12CD3CF85E001C080E054
:100BB00090E00196480E591EF10181911F01882392
:100BC00081F1F0E24F16510464F580528F3578F7C9
:100BD00030E183169104FCF492012B5F3F4FEAF061
:100BE0004FA158A55523DCF090E09C01220F331F44
:100BF000220F331F820F931F320155E0650E711CC7
:100C0000520124E530E024193509F901E80FF91FF4
:100C1000FEA3EDA3B8CF80E0CBCF85E0C9CF85E0C0
:100C2000C7CF10E00F2EFFECEF2EF2E0FF2EF02DDD
:100C3000F701168FC7010E94D9078FEC97E0019743
:100C4000F1F700C000001F5F143091F7E9A1FAA18D
:100C50003196FAA3E9A380917C008E171F0611F04C
:100C600008F0D8CD60917B0020917D0030917E000E
:100C7000260F311D67FD3A9530937E0020937D004D
:100C8000EFE7F0E001900020E9F7AF014058504055
:100C9000CA01880F991F840F951F880F991F66231B
:100CA00074F0213231050CF4B3CD91958195910901
:100CB00090937E0080937D001AA219A2ABCD9195EE
:100CC00081959109281739070CF09FCD20E230E07B
:100CD00030937E0020937D001AA219A29BCDCF9362
:100CE000DF931F92CDB7DEB78FB9779BFECF8FB161
:100CF000898389810F90DF91CF9108959C012370A2
:100D000033272130310581F0C0F02230310579F0F0
:100D10002330310579F0AC014C7F240F351F203191
:100D2000310570F4C901089530E020E0F4CF21E0EE
:100D300030E0F1CF22E030E0EECF23E030E0EBCF47
:100D40009C01F0CF009769F0FC01228D338D2115B5
:100D5000310539F0448D558D70E060E0C9010E9485
:100D6000B80A0895CF93DF93009709F486C0611500
:100D7000710509F485C0442309F485C0222309F4D0
:100D800085C0FB01EC0184E1DE0101900D928A95A2
:100D9000E1F74C8B2D8B50E0CA01880F991F82958B
:100DA0009295907F9827807F98279F8B8E8B30E03D
:100DB000C90182959295907F9827807F9827998F77
:100DC000888F429FC001439F900D529F900D112428
:100DD0000024969587950794969587950794982F64
:100DE000802D9D8F8C8F0E948A099B8F8A8F892BE3
:100DF00009F44FC0E881F98180819C81892B80832F
:100E0000ED81FE8180819985892B8083EA85FB8530
:100E100080819E85892B8083EF85F88980819B89DD
:100E2000892B8083EA81FB8180819C81892B80834F
:100E3000EF81F88590818985809589238083EC8571
:100E4000FD8590818E85809589238083E989FA8943
:100E500090818B8980958923808387B3806B87BB42
:100E600080E58DB97098C49ACE010E94A2061E8EAC
:100E700090E080E0DF91CF9108958FEF9FEFFACF60
:100E80008FEF9FEFF7CF8FEF9FEFF4CF8FEF9FEFB5
:100E9000F1CF8FEF9FEFEECFDF92EF92FF920F93A4
:100EA0001F93CF93DF93009709F475C0DC015A9626
:100EB0000D911C915B970115110509F46CC05696B4
:100EC000ED91FC9157976E177F0708F064C0589614
:100ED000ED91FC914E175F0708F05DC0D22E7B01AB
:100EE000EC01CA010E947E064C899C013295229534
:100EF0002F7023273F70232750E0249FB001259FA8
:100F0000700D349F700D11249701369527953295F9
:100F100022952F7023273F702327260F371F220F7C
:100F2000331F22953295307F3227207F3227B70139
:100F30006F717727620F731FED89E49F9001E59F22
:100F4000300D1124220F331F220F331F8F7099276A
:100F5000289FF001299FF00D389FF00D1124CB013F
:100F6000969587959695879596958795E80FF91F9D
:100F70008C8D9D8DE817F90770F467707727DB017A
:100F8000AC53BD4F8C91D1100EC0E00FF11F809576
:100F9000908189238083DF91CF911F910F91FF90E2
:100FA000EF90DF900895E00FF11F9081892B8083EF
:100FB000F2CF2F923F924F925F926F927F928F92D9
:100FC0009F92AF92BF92CF92DF92EF92FF920F93D8
:100FD0001F93CF93DF9300D000D0CDB7DEB79A83B5
:100FE0008983009709F466C1DC015A968D919C9122
:100FF0005B97892B09F45EC11296ED91FC911397D2
:10100000808114969C911497892B80835E968C9195
:101010005E9780FF66C11796ED91FC9118979081BD
:1010200019962C91922B908381FD68C1A981BA8178
:101030001C96ED91FC911D9790811E968C91809548
:1010400089238083E981FA81FC83EB838489258865
:10105000829D900111243A832983268D89819A816A
:10106000880F991F880F991F289F8001299F100DB5
:10107000112449805A80440C551C440C551C440CC6
:10108000551C440C551C69807A80660C771C660CD4
:10109000771C660C771C660C771C660C771C80E34B
:1010A000A981BA818A9F40018B9F900C1124AB2BA0
:1010B00009F4DAC05801BFEFAB1ABB0A6801E2E0DD
:1010C000CE0ED11C7801F3E0EF0EF11C312C212C57
:1010D000AB81BC815A96ED91FC91E80DF91DE00FB2
:1010E000F11F80810E946F06AB81BC815A96ED9101
:1010F000FC91E60DF71DE00FF11F80810E946F0645
:10110000AB81BC815A96ED91FC91EA0DFB1DE80D77
:10111000F91D80810E946F06AB81BC815A96ED91CA
:10112000FC91EA0DFB1DE60DF71D80810E946F0604
:10113000AB81BC815A96ED91FC91E40DF51DE00F59
:10114000F11F80810E946F06AB81BC815A96ED91A0
:10115000FC91E00FF11F80810E946F06AB81BC8182
:101160005A96ED91FC91EA0DFB1DE40DF51D808171
:101170000E946F06AB81BC815A96ED91FC91EA0DFD
:10118000FB1D80810E946F06AB81BC815A96ED9158
:10119000FC91E80DF91DEC0DFD1D80810E946F068C
:1011A000AB81BC815A96ED91FC91E60DF71DEC0DDB
:1011B000FD1D80810E946F06AB81BC815A96ED9126
:1011C000FC91E80DF91DEE0DFF1D80810E946F0658
:1011D000AB81BC815A96ED91FC91E60DF71DEE0DA9
:1011E000FF1D80810E946F06AB81BC815A96ED91F4
:1011F000FC91E40DF51DEC0DFD1D80810E946F0634
:10120000AB81BC815A96ED91FC91EC0DFD1D808166
:101210000E946F06AB81BC815A96ED91FC91E40D62
:10122000F51DEE0DFF1D80810E946F06AB81BC8114
:101230005A96ED91FC91EE0DFF1D80810E946F0684
:101240000C5F1F4FBFEF2B1A3B0AE4E0AE0EB11C40
:10125000F4E0CF0ED11C24E0E20EF11C89819A81CA
:101260008215930509F034CFAB81BC815196ED9185
:10127000FC915297808153969C91892B8083B3E097
:10128000BA95F1F70000AB81BC815196ED91FC91CC
:101290005297908153968C915397809589238083A0
:1012A0001296ED91FC911397908114968C918095F4
:1012B000892380830F900F900F900F90DF91CF9133
:1012C0001F910F91FF90EF90DF90CF90BF90AF9064
:1012D0009F908F907F906F905F904F903F902F9056
:1012E0000895A981BA811796ED91FC9118972081F4
:1012F00019969C9190959223908396CEA981BA815C
:101300001C96ED91FC911D9780811E969C91892BD6
:10131000808398CE0F931F93CF93DF9382309105F4
:1013200010F482E090E0E0915003F091510330E03E
:1013300020E0B0E0A0E0309799F42115310509F4E0
:101340004AC0281B390B24303105D8F58A819B818E
:101350006115710589F1FB0193838283FE0111C040
:10136000408151810281138148175907E0F04817E5
:10137000590799F4109761F012960C9312971396EF
:101380001C933296CF01DF91CF911F910F91089559
:101390000093500310935103F4CF2115310551F000
:1013A0004217530738F0A901DB019A01BD01DF01A3
:1013B000F801C1CFEF01F9CF90935103809350030F
:1013C000CDCFFE01E20FF31F81939193225031099B
:1013D00039832883D7CF20914E0330914F03232B9D
:1013E00041F4209162003091630030934F032093C9
:1013F0004E0320916000309161002115310541F4C8
:101400002DB73EB74091640050916500241B350B09
:10141000E0914E03F0914F03E217F307A0F42E1B67
:101420003F0B2817390778F0AC014E5F5F4F241748
:10143000350748F04E0F5F1F50934F0340934E0304
:10144000819391939FCFF0E0E0E09CCFCF93DF9327
:101450000097E9F0FC01329713821282A0915003A9
:10146000B0915103ED0130E020E01097A1F420810C
:101470003181820F931F20914E0330914F03281723
:10148000390709F061C0F0934F03E0934E03DF91F9
:10149000CF910895EA01CE17DF07E8F54A815B8115
:1014A0009E0141155105B1F7E901FB83EA8349919A
:1014B0005991C40FD51FEC17FD0761F4808191810C
:1014C0000296840F951FE901998388838281938115
:1014D0009B838A83F0E0E0E012968D919C911397B4
:1014E0000097B9F52D913C911197CD010296820F8D
:1014F000931F20914E0330914F032817390739F677
:10150000309751F51092510310925003B0934F034E
:10151000A0934E03BCCFD383C28340815181840FFB
:10152000951FC817D90761F44E5F5F4F8881998175
:10153000480F591F518340838A819B819383828303
:101540002115310509F0B0CFF0935103E09350031A
:101550009ECFFD01DC01C0CF13821282D7CFFB01E9
:10156000DC0102C001900D9241505040D8F708951F
:10157000DC0101C06D9341505040E0F70895FB013C
:10158000DC014150504048F001900D920020C9F715
:1015900001C01D9241505040E0F70895F894FFCFEC
:1015A00000005203200031003200803A003B00026C
:1015B0003A003B00043A003B001004FF1E20005795
:1015C000454C434F4D4520455241534D55532053B3
:1015D000545544454E54530000000000000000558F
:1015E0007064617465643A2000523E4C004C3E5277
:1015F00000564D41343139204C45442044697370C4
:101600006C6179202D205541525420436F6E7472C5
:101610006F6C205265616479210D0A005479706500
:1016200020796F7572206D65737361676520616ED7
:101630006420707265737320456E74657220746FD8
:1016400020646973706C6179206F6E204C45442072
:101650006D61747269780D0A0053706565643A2093
:10166000000D0A446972656374696F6E3A20004523
:1016700052524F523A20446973706C617920696EFE
:10168000697469616C697A6174696F6E20666169F9
:101690006C6564210D0A00446973706C6179696E30
:1016A000672046455342204C6F676F20666F72205B
:1016B0003130207365636F6E64732E2E2E0D0A0019
:1016C00046455342204C6F676F20646973706C61AC
:1016D0007920636F6D706C6574652E205374617230
:1016E00074696E67207363726F6C6C696E672074C7
:1016F0006578742E2E2E0D0A00436F6E74726F6C17
:10170000733A205043303D53706565642B2C205054
:1017100043313D53706565642D2C205043323D5458
:101720006F67676C654469722C205043363D557075
:101730002C205043373D446F776E0D0A005370657F
:1017400065642B3A20005370656564204D41580D47
:101750000A3E200053706565642D3A200053706581
:101760006564204D494E0D0A3E20004469723A20BE
:101770004C3C2D520D0A3E20004469723A204C2DFB
:101780003E520D0A3E2000546578742055703A2070
:10179000593D005465787420617420544F500D0AEF
:1017A0003E20005465787420446F776E3A20593D8E
:1017B000005465787420617420424F54544F4D0D8D
:1017C0000A3E200000000000000000001FBF7FF85C
:1017D0003F7FFFFC7870F21C7060E00E6040E01C00
:1017E0005FBFFDFC3F7F7EFC78700E1C7060060EB4
:1017F00070721E1C707FFEFC703FFDF80000000040
:0C180000000000008040201008040201DD
:00000001FF
