:100000000C9418010C9435010C9435010C943501B5
:100010000C9435010C9435010C9435010C94350188
:100020000C9435010C9435010C9435010C9412029A
:100030000C9435010C9435010C9435010C94350168
:100040000C9435010C9435010C9435010C94350158
:100050000C943501000000000000005F0000000764
:10006000000700147F147F14242A7F2A1223130808
:10007000646236495522500005030000001C2241ED
:10008000000041221C00082A1C2A0808083E080813
:1000900000503000000808080808006060000020D8
:1000A000100804023E5149453E00427F4000426133
:1000B0005149462141454B311814127F10274545BF
:1000C00045393C4A494930017109050336494949D6
:1000D00036064949291E0036360000005636000013
:1000E00000081422411414141414412214080002AC
:1000F00001510906324979413E7E1111117E7F4935
:100100004949363E414141227F4141221C7F4949B4
:1001100049417F090901013E414151327F080808E8
:100120007F00417F41002040413F017F0814224170
:100130007F404040407F0204027F7F0408107F3EE2
:100140004141413E7F090909063E4151215E7F0937
:10015000192946464949493101017F01013F404083
:10016000403F1F2040201F7F2018207F6314081469
:10017000630304780403615149454300007F414112
:10018000020408102041417F0000040201020440E3
:1001900040404040000102040020545454787F48FD
:1001A0004444383844444420384444487F38545404
:1001B0005418087E090102081454543C7F080404B2
:1001C0007800447D40002040443D00007F102844DA
:1001D00000417F40007C041804787C0804047838CF
:1001E000444444387C14141408081414187C7C0803
:1001F0000404084854545420043F4440203C4040E8
:10020000207C1C2040201C3C4030403C44281028CE
:10021000440C5050503C4464544C44000836410057
:1002200000007F0000004136080008082A1C080072
:1002300011241FBECFE5D4E0DEBFCDBF12E0A0E6A3
:10024000B0E0EAEBF5E102C005900D92A43DB107E4
:10025000D9F723E0A4EDB2E001C01D92A636B207A3
:10026000E1F70E94FA020C94DB0A0C9400006F92F2
:100270007F928F929F92AF92BF92CF92DF92EF9236
:10028000FF920F931F93CF93DF930097C1F16C01FF
:100290000E94AB060F2EFCE88F2EF2E09F2EF02D71
:1002A000F12CE12C0AC08FEFE81AF80AE4E08E0E78
:1002B000911CF0E1EF16F10411F15401612CF501EC
:1002C00001915F01762CC7E0D0E010E098010C2E80
:1002D00002C0359527950A94E2F72170672D70E0EA
:1002E000A701C6010E94590721977394CF3FDC07ED
:1002F00069F7E8E06E0EF0E26F12E1CFD4CFDF9144
:10030000CF911F910F91FF90EF90DF90CF90BF9012
:10031000AF909F908F907F906F900895EF92FF9293
:100320000F931F93CF93DF93009709F459C0EC010B
:100330000E9437010F2EF4ECEF2EF9E0FF2EF02D86
:1003400004C091E0E91AF10879F010E018A7CE0195
:100350000E94E6078FEC97E00197F1F700C00000DC
:100360001F5F143099F7EDCF05E031C091E0E91A35
:10037000F10879F010E018A7CE010E94E6078FEC93
:1003800097E00197F1F700C000001F5F143099F764
:10039000EDCFCE010E94AB060F2EFAEFEF2EF12C1F
:1003A000F02D04C091E0E91AF10879F010E018A7E7
:1003B000CE010E94E6078FEC97E00197F1F700C0AD
:1003C00000001F5F143099F7EDCF015049F0CE01C6
:1003D0000E9437010F2EFAEFEF2EF12CF02DCACF2D
:1003E000DF91CF911F910F91FF90EF90089590BDF5
:1003F00089B988E98AB986E880BD789408955D9BBB
:10040000FECF8CB90895CF93DF93EC0188818823C8
:1004100031F021960E94FF0189918111FBCFDF917C
:10042000CF9108951F920F920FB60F9211242F9320
:100430003F934F935F936F937F938F939F93AF936C
:10044000BF93CF93DF93EF93FF93CCB18C2F0E9498
:10045000FF01CD3001F1CA30F1F0C83009F460C0BD
:10046000CF3709F45DC080EE8C0F8F3508F043C0A4
:100470008091D60290E001968F7390782091D502FA
:100480002817C9F1E091D602F0E0EE5DFC4FC08381
:100490008093D60230C09091D6028091D5029817F1
:1004A00051F18091D5029091D6028917B9F1A2E05D
:1004B000B3E0E0E090E0EC01CE5DDC4F28812D93CD
:1004C00001968F739078EF5F9091D602981711F094
:1004D000EF3181F7F0E0EE5FFC4F108281E0809316
:1004E000D4021092D6021092D5028DE00E94FF0134
:1004F0008AE00E94FF01FF91EF91DF91CF91BF91C0
:10050000AF919F918F917F916F915F914F913F91AB
:100510002F910F900FBE0F901F901895E0E0DACF4B
:100520009091D6028091D502981729F38091D60236
:1005300090E0CF968F7390788093D60288E00E94E7
:10054000FF0180E20E94FF0188E00E94FF01D3CFFB
:100550000F931F93CF93DF932091D402211105C0F5
:10056000DF91CF911F910F910895EC01062F10E0BC
:10057000A8014150510962E073E00E94CC0AC00F0B
:10058000D11F219718821092D402EACFCF93DF9324
:10059000E9E8F0E020E2DF011D922A95E9F7FC018D
:1005A00001900020E9F73197E81BEF3108F0EEE108
:1005B000CE2FD0E0AE01BC0189E890E00E94BC0AD9
:1005C000C757DF4F80E28883198280E290E09093E2
:1005D00088008093870089EA90E00E94030289E8FE
:1005E00090E00E9403028DE392E00E940302DF91FB
:1005F000CF910895CF93DF93CDB7DEB7AD970FB608
:10060000F894DEBF0FBECDBF2FEF30E742E02150A0
:1006100030404040E1F700C0000083E390E00E94DA
:10062000F70184B3887384BB85B3876C85BB5FEFA8
:1006300080E792E0515080409040E1F700C0000018
:1006400081E40E94FF01EFE1FEE43197F1F700C081
:1006500000008DE00E94FF018AE00E94FF018BEB09
:1006600090E00E94030286EE90E00E94030283E283
:1006700091E00E94030280918600843608F44FC006
:1006800019E2819F812D112482958F70805D0E94D7
:10069000FF0180918600819F912D112492959F707A
:1006A000F4E69F9F801911241DEC819F812D112458
:1006B000869586958695805D0E94FF012091860033
:1006C000219F812D1124869586958695982F990FC7
:1006D000990F890F880F281B822F805D0E94FF01D0
:1006E0008BE291E00E940302809185008823D4F17F
:1006F00087EB90E00E9403028DE392E00E940302E8
:1007000021E041E066E670E089ED92E00E94BB06E0
:10071000892B59F189E391E00E940302FFCF8A30CF
:10072000E8F01DEC819F812D112486958695869594
:10073000805D0E94FF0120918600219F812D112460
:10074000869586958695982F990F990F890F880F12
:10075000281B822F805D0E94FF01C2CF805D0E9416
:10076000FF01BECF83EB90E0C5CF89ED92E00E9400
:10077000AB0681E691E00E9403026AE089ED92E017
:100780000E948E018AE891E00E9403028FE392E0CA
:100790000E94030289ED92E00E94AB062FEF31EE3A
:1007A00044E0215030404040E1F700C0000084B3F5
:1007B000887384BB85B3876C85BB5FE788E391E072
:1007C000515080409040E1F700C0000083B3817039
:1007D00089A783B3869581708AA783B382FB882714
:1007E00080F98BA783B386FB882780F98CA783B316
:1007F000881F8827881F8DA783EC91E00E94030241
:100800008FE392E00E9403021CA21AA219A205C063
:100810001AA219A202C01AA219A28091D4028111AF
:1008200034C0ECA1E11161C183B38170C82EF3B271
:10083000F1FAFF24F0F8E3B2E2FAEE24E0F8D3B2E2
:10084000D6FADD24D0F803B310E0000F012F001F0B
:10085000110BB02EF9A5F13011F189A58CA39AA541
:10086000913009F456C04BA5413009F48CC02CA539
:10087000213009F4BAC09DA5913009F4F1C00DA74B
:10088000DCA6EBA6FAA6C9A633C160E2CE010196AA
:100890000E94A802CE0101960E94C602C2CF811119
:1008A000DECF80918600863068F185508093860087
:1008B00087E092E00E940302809186002DEC829FE7
:1008C000812D1124869586958695805D0E94FF0175
:1008D000809186003DEC839F912D1124292F269530
:1008E00026952695922F990F990F920F990F891B94
:1008F000805D0E94FF018DE392E00E94030242E3CB
:100900004CA3ADCF80E192E00E94030252E35CA3CE
:10091000A6CFF110A8CF80918600843668F58B5F52
:10092000809386008EE192E00E940302809186000F
:10093000EDEC8E9F812D1124869586958695805DA0
:100940000E94FF0180918600FDEC8F9F912D112464
:10095000292F269526952695922F990F990F920F5C
:10096000990F891B805D0E94FF018DE392E00E9438
:10097000030222E32CA377CF87E292E00E940302D6
:1009800032E33CA370CFE11072CF80918500819556
:10099000809385008823E4F0E9E8F0E001900020EE
:1009A000E9F7CF018A5890409C01220F331F220F94
:1009B000331F821B930B880F991F9093880080939D
:1009C000870082E492E00E940302F2E3FCA34FCF8F
:1009D00080E290E0909388008093870085E392E026
:1009E0000E94030292E39CA342CFD11044CF809196
:1009F0008400181674F58150809384008FE492E08F
:100A00000E9403029091840037E69302812D112405
:100A10008595859597FD8395805D0E94FF01809166
:100A2000840047E68402912D11249595959587FDC4
:100A30009395292F220F220F920F990F891B805D0A
:100A40000E94FF018DE392E00E94030252E35CA347
:100A500012CF8BE592E00E94030282E38CA30BCFBE
:100A6000B1106BC0809184008F309CF58F5F8093B4
:100A700084008BE692E00E94030290918400E7E6F6
:100A80009E02812D11248595859597FD8395805D26
:100A90000E94FF0180918400F7E68F02912D1124BE
:100AA0009595959587FD9395292F220F220F920FEB
:100AB000990F891B805D0E94FF018DE392E00E94E7
:100AC00003020DA7DCA6EBA6FAA6C9A622E32CA377
:100AD0000FC089E792E00E9403020DA7DCA6EBA6F7
:100AE000FAA6C9A632E33CA303C04CA141504CA3D3
:100AF00089ED92E00E94AB06509184005BA3852EA5
:100B0000550F99084090870050908800E9E8F0E080
:100B10008081882309F488C0F0E24F1651040CF05C
:100B200083C00F2EFAE82F2EF0E03F2EF02D940117
:100B3000295F3F4F38A72FA34BC00DA7DCA6EBA61C
:100B4000FAA6C9A6D5CF0F5F1F4F4FEFE41AF40ADC
:100B500007301105A9F030E1E316F104A0F7C60152
:100B6000002E02C0959587950A94E2F780FFEBCF9F
:100B700021E0A701B50189ED92E00E945907E3CF7A
:100B80005FEFA51AB50A6A147B0491F0F0E2AF1684
:100B9000B104B0F7EDA1FEA1EA0DFB1DE4912BA17C
:100BA000E22E220FFF0810E000E0CE2ED12CD3CF92
:100BB00085E001C080E090E00196480E591EF101E9
:100BC00081911F01882381F1F0E24F16510464F5F1
:100BD00080528F3578F730E183169104FCF492014E
:100BE0002B5F3F4FEAF04FA158A55523DCF090E072
:100BF0009C01220F331F220F331F820F931F3201DC
:100C000055E0650E711C520124E530E024193509C8
:100C1000F901E80FF91FFEA3EDA3B8CF80E0CBCF19
:100C200085E0C9CF85E0C7CF10E00F2EF9EDEF2E9C
:100C3000F2E0FF2EF02DF70110A7C7010E94E60792
:100C40008FEC97E00197F1F700C000001F5F1430B0
:100C500091F7E9A1FAA13196FAA3E9A38091860060
:100C60008E171F0611F008F0D8CD609185002091F5
:100C7000870030918800260F311D67FD3A9530932B
:100C8000880020938700E9E8F0E001900020E9F770
:100C9000AF014A585040CA01880F991F840F951F11
:100CA000880F991F662374F0213231050CF4B3CDFF
:100CB00091958195910990938800809387001AA25D
:100CC00019A2ABCD919581959109281739070CF0A0
:100CD0009FCD20E230E030938800209387001AA255
:100CE00019A29BCDCF93DF931F92CDB7DEB7209192
:100CF000D7023091D802232B31F08FB9779BFECFEA
:100D00008FB1898389810F90DF91CF9108959C01E4
:100D1000237033272130310581F0C0F022303105B6
:100D200079F02330310579F0AC014C7F240F351F69
:100D30002031310570F4C901089530E020E0F4CF8E
:100D400021E030E0F1CF22E030E0EECF23E030E0F0
:100D5000EBCF9C01F0CF009769F0FC0124A135A1F5
:100D60002115310539F046A157A170E060E0C901B5
:100D70000E94C50A0895CF93DF93009709F48AC0B3
:100D80006115710509F489C0442309F489C022233F
:100D900009F489C0FB01EC018EE1DE0101900D92A6
:100DA0008A95E1F74E8F2F8F50E0CA01880F991F67
:100DB00082959295907F9827807F982799A388A302
:100DC00030E0C90182959295907F9827807F98277F
:100DD0009BA38AA3429FC001439F900D529F900DF9
:100DE00011240024969587950794969587950794E6
:100DF000982F802D9FA38EA30E9497099DA38CA35B
:100E0000892B09F453C0E881F98180819C81892B69
:100E10008083ED81FE8180819985892B8083EA859D
:100E2000FB8580819E85892B8083E98DFA8D808169
:100E30009D8D892B8083EA81FB8180819C81892B18
:100E40008083EF81F88590818985809589238083CF
:100E5000EC85FD8590818E85809589238083EB8D3F
:100E6000FC8D90818D8D809589238083D093D802CD
:100E7000C093D70287B3806B87BB80E58DB970982C
:100E8000C49ACE010E94AB0618A690E080E0DF91E4
:100E9000CF9108958FEF9FEFFACF8FEF9FEFF7CFAE
:100EA0008FEF9FEFF4CF8FEF9FEFF1CF8FEF9FEF9B
:100EB000EECFDF92EF92FF920F931F93CF93DF93CA
:100EC000009709F475C0DC0194960D911C919597DB
:100ED0000115110509F46CC09096ED91FC91919764
:100EE0006E177F0708F064C09296ED91FC914E1743
:100EF0005F0708F05DC0D22E7B01EC01CA010E94A1
:100F000087064E8D9C01329522952F7023273F70C6
:100F1000232750E0249FB001259F700D349F700D52
:100F20001124970136952795329522952F70232706
:100F30003F702327260F371F220F331F229532952C
:100F4000307F3227207F3227B7016F717727620FFA
:100F5000731FEF8DE49F9001E59F300D1124220F48
:100F6000331F220F331F8F709927289FF001299F6D
:100F7000F00D389FF00D1124CB019695879596952D
:100F8000879596958795E80FF91F8EA19FA1E81781
:100F9000F90770F467707727DB01A453BD4F8C917C
:100FA000D1100EC0E00FF11F8095908189238083BE
:100FB000DF91CF911F910F91FF90EF90DF900895F7
:100FC000E00FF11F9081892B8083F2CF2F923F9207
:100FD0004F925F926F927F928F929F92AF92BF9249
:100FE000CF92DF92EF92FF920F931F93CF93DF93F5
:100FF00000D000D0CDB7DEB79A838983009709F47B
:1010000066C1DC0194968D919C919597892B09F48A
:101010005EC11296ED91FC911397808114969C917C
:101020001497892B808398968C91989780FF66C13E
:101030001796ED91FC911897908119962C91922B0F
:10104000908381FD68C1A981BA811C96ED91FC91C4
:101050001D9790811E968C91809589238083E981CC
:10106000FA81FC83EB83868D278C829D900111246D
:101070003A83298320A589819A81880F991F880F37
:10108000991F289F8001299F100D112449805A80A3
:10109000440C551C440C551C440C551C440C551C4C
:1010A00069807A80660C771C660C771C660C771C4E
:1010B000660C771C660C771C80E3A981BA818A9F35
:1010C00040018B9F900C1124AB2B09F4DAC058011E
:1010D000BFEFAB1ABB0A6801E2E0CE0ED11C78016B
:1010E000F3E0EF0EF11C312C212CAB81BC819496E6
:1010F000ED91FC91E80DF91DE00FF11F80810E9438
:101100007206AB81BC819496ED91FC91E60DF71DC2
:10111000E00FF11F80810E947206AB81BC81949622
:10112000ED91FC91EA0DFB1DE80DF91D80810E94F7
:101130007206AB81BC819496ED91FC91EA0DFB1D8A
:10114000E60DF71D80810E947206AB81BC819496EA
:10115000ED91FC91E40DF51DE00FF11F80810E94DF
:101160007206AB81BC819496ED91FC91E00FF11F6A
:1011700080810E947206AB81BC819496ED91FC91B6
:10118000EA0DFB1DE40DF51D80810E947206AB8106
:10119000BC819496ED91FC91EA0DFB1D80810E942B
:1011A0007206AB81BC819496ED91FC91E80DF91D1E
:1011B000EC0DFD1D80810E947206AB81BC8194966E
:1011C000ED91FC91E60DF71DEC0DFD1D80810E9457
:1011D0007206AB81BC819496ED91FC91E80DF91DEE
:1011E000EE0DFF1D80810E947206AB81BC8194963A
:1011F000ED91FC91E60DF71DEE0DFF1D80810E9423
:101200007206AB81BC819496ED91FC91E40DF51DC5
:10121000EC0DFD1D80810E947206AB81BC8194960D
:10122000ED91FC91EC0DFD1D80810E947206AB8159
:10123000BC819496ED91FC91E40DF51DEE0DFF1D22
:1012400080810E947206AB81BC819496ED91FC91E5
:10125000EE0DFF1D80810E9472060C5F1F4FBFEFD5
:101260002B1A3B0AE4E0AE0EB11CF4E0CF0ED11C09
:1012700024E0E20EF11C89819A818215930509F020
:1012800034CFAB81BC815B96ED91FC915C97808102
:101290005D969C91892B8083B3E0BA95F1F70000AD
:1012A000AB81BC815B96ED91FC915C9790815D96E2
:1012B0008C915D978095892380831296ED91FC91A6
:1012C0001397908114968C918095892380830F9039
:1012D0000F900F900F90DF91CF911F910F91FF9082
:1012E000EF90DF90CF90BF90AF909F908F907F90C6
:1012F0006F905F904F903F902F900895A981BA8191
:101300001796ED91FC911897208119969C919095D4
:101310009223908396CEA981BA811C96ED91FC917F
:101320001D9780811E969C91892B808398CE0F9368
:101330001F93CF93DF938230910510F482E090E009
:10134000E0916403F091650330E020E0B0E0A0E0BC
:10135000309799F42115310509F44AC0281B390B3F
:1013600024303105D8F58A819B816115710589F199
:10137000FB0193838283FE0111C040815181028170
:10138000138148175907E0F04817590799F4109747
:1013900061F012960C93129713961C933296CF011C
:1013A000DF91CF911F910F910895009364031093E3
:1013B0006503F4CF2115310551F04217530738F07A
:1013C000A901DB019A01BD01DF01F801C1CFEF01E5
:1013D000F9CF9093650380936403CDCFFE01E20FB4
:1013E000F31F819391932250310939832883D7CFFA
:1013F0002091620330916303232B41F4209162001A
:101400003091630030936303209362032091600066
:10141000309161002115310541F42DB73EB740915F
:10142000640050916500241B350BE0916203F0913C
:101430006303E217F307A0F42E1B3F0B28173907AD
:1014400078F0AC014E5F5F4F2417350748F04E0F20
:101450005F1F5093630340936203819391939FCFE7
:10146000F0E0E0E09CCFCF93DF930097E9F0FC0140
:10147000329713821282A0916403B0916503ED014B
:1014800030E020E01097A1F420813181820F931F7A
:1014900020916203309163032817390709F061C076
:1014A000F0936303E0936203DF91CF910895EA0123
:1014B000CE17DF07E8F54A815B819E014115510592
:1014C000B1F7E901FB83EA8349915991C40FD51F14
:1014D000EC17FD0761F4808191810296840F951FBE
:1014E000E90199838883828193819B838A83F0E0D9
:1014F000E0E012968D919C9113970097B9F52D918C
:101500003C911197CD010296820F931F20916203A7
:10151000309163032817390739F6309751F5109247
:10152000650310926403B0936303A0936203BCCF7E
:10153000D383C28340815181840F951FC817D90777
:1015400061F44E5F5F4F88819981480F591F518325
:1015500040838A819B81938382832115310509F021
:10156000B0CFF0936503E09364039ECFFD01DC01EF
:10157000C0CF13821282D7CFFB01DC0102C00190E1
:101580000D9241505040D8F70895DC0101C06D9391
:1015900041505040E0F70895FB01DC0141505040BC
:1015A00048F001900D920020C9F701C01D924150F2
:0A15B0005040E0F70895F894FFCFD3
:1015BA0000006603200031003200803A003B00023E
:1015CA003A003B0004370038008037003800203AE0
:1015DA00003B001004FF1E200057454C434F4D4569
:1015EA0020455241534D55532053545544454E546A
:1015FA0053000000000000000055706461746564C7
:10160A003A2000523E4C004C3E5200564D41343175
:10161A0039204C454420446973706C6179202D202F
:10162A005541525420436F6E74726F6C205265613B
:10163A006479210D0A005479706520796F757220DA
:10164A006D65737361676520616E6420707265737E
:10165A007320456E74657220746F20646973706CB0
:10166A006179206F6E204C4544206D6174726978EF
:10167A000D0A0053706565643A20000D0A446972C8
:10168A00656374696F6E3A20004552524F523A2090
:10169A00446973706C617920696E697469616C69F7
:1016AA007A6174696F6E206661696C6564210D0ADE
:1016BA0000446973706C6179696E672046455342CC
:1016CA00204C6F676F20666F72203130207365631C
:1016DA006F6E64732E2E2E0D0A0046455342204C1F
:1016EA006F676F20646973706C617920636F6D70C6
:1016FA006C6574652E205374617274696E67207309
:10170A0063726F6C6C696E6720746578742E2E2E06
:10171A000D0A00436F6E74726F6C733A2050433037
:10172A003D53706565642B2C205043313D537065E1
:10173A0065642D2C205043323D546F67676C6544B5
:10174A0069722C205043363D55702C205043373D4A
:10175A00446F776E0D0A0053706565642B3A20005A
:10176A005370656564204D41580D0A3E2000537040
:10177A006565642D3A20005370656564204D494EB5
:10178A000D0A3E20004469723A20523E4C0D0A3E30
:10179A0020004469723A204C3E520D0A3E20005401
:1017AA006578742055703A20593D00546578742044
:1017BA00617420544F500D0A3E20005465787420FD
:1017CA00446F776E3A20593D0054657874206174ED
:1017DA0020424F54544F4D0D0A3E20000000000095
:1017EA00000000001FBF7FF83F7FFFFC7870F21CEB
:1017FA007060E00E6040E01C5FBFFDFC3F7F7EFC36
:10180A0078700E1C7060060E70721E1C707FFEFCD3
:10181A00703FFDF80000000000000000804020102A
:04182A0008040201AB
:00000001FF
